:020000041000EA
:1000000000B5324B212058609868022188439860DF
:10001000D860186158612E4B002199600221596106
:100020000121F02299502B49196001219960352056
:1000300000F044F80222904214D00621196600F024
:1000400034F8196E01211966002018661A6600F04E
:100050002CF8196E196E196E052000F02FF8012189
:100060000842F9D1002199601B49196000215960AB
:100070001A491B48016001219960EB211966A021F2
:10008000196600F012F800219960164914480160C1
:100090000121996001BC002800D000471248134993
:1000A000086003C880F30888084703B5996A0420EC
:1000B0000142FBD001200142F8D103BD02B5186610
:1000C0001866FFF7F2FF186E186E02BD00000240BE
:1000D000000000180000070000035F00212200005C
:1000E000F4000018222000A00001001008ED00E03C
:1000F00000000000000000000000000074B24E7A12
:1001000000200420F7010010CB010010CD010010E9
:10011000C9010010C9010010C9010010C901001077
:10012000C9010010C9010010C9010010CF01001061
:10013000C9010010C9010010D1010010D301001045
:10014000C1010010C1010010C1010010C101001067
:10015000C1010010C1010010C1010010C101001057
:10016000C1010010C1010010C1010010C101001047
:10017000C1010010C1010010C1010010C101001037
:10018000C1010010C1010010C1010010C101001027
:10019000C1010010C1010010C1010010C101001017
:1001A000C1010010C1010010C1010010C101001007
:1001B000C1010010C1010010C1010010C1010010F7
:1001C000EFF30580103800BE00BE00BE00BE00BECA
:1001D00000BE00BEF2EB8871C4560010E456001059
:1001E0003802001090A31AE71E481F49086006C88D
:1001F00081F3088810471D480068002801D019487D
:10020000F3E70DA40ECC002902D000F012F8F9E7B4
:100210001749184A002000E001C19142FCD116495B
:100220008847164988471649884700BEFDE701C937
:1002300001C29A42FBD37047E4560010C000002070
:10024000E0100020046700100000042000000420DB
:1002500004670010001004200010042000000000BB
:10026000704700000000000008ED00E0000000D032
:10027000E0100020E81F0020B126001069080010DF
:10028000A9260010F8B5C04606480749091A8B1080
:10029000C90FC91810B5491003D0044B002B00D06A
:1002A000984710BDE0100020E01000200000000082
:1002B000054B10B5002B03D00449054800E000BFF2
:1002C000FFF7E2FF10BDC04600000000801E0020C6
:1002D0009C520010F8B5D0248025CE464746AD018B
:1002E000194B240680B5A5611A689946FA23DB04E8
:1002F00053401B0C154A1B041360FA23144F9046FD
:100300003A68DB005340134E1B041B0C3360002182
:10031000114801F031FA4B461A68FA239B04534006
:1003200042461B0C1B041360FA233A689B0053409F
:100330001B041B0C33600021074801F01DFA6561A6
:10034000C0BCB946B046F8BD2000054020100540AD
:100350003400054034100540C0C62D0070B56A4C0D
:100360006A4D206802F012F8694901F0C6FF694938
:1003700001F0D7FF674901F0BDFF02F057F82E6882
:1003800080B273081F2E00D8A1E003221A40083261
:1003900093009B18604A9B0094466344F60700D480
:1003A000A0E05E4A000419686E6848408021490157
:1003B0008C46024063441A60606801F0E7FF5449CC
:1003C00001F09BFF534901F0ACFF524901F092FF4D
:1003D00002F02CF8730880B21F2E00D891E003229F
:1003E0001A40083293009B184B4A9B009446634482
:1003F000F60700D483E0494A00041968AE68484013
:10040000802149018C46024063441A60A06801F0D3
:10041000BDFF3F4901F071FF3E4901F082FF3D49B8
:1004200001F068FF02F002F8730880B21F2E63D952
:1004300003221A40083293009B18374A9B009446C7
:100440006344F60756D5354A00041968ED684840FC
:10045000802149018C46024063441A60E06801F043
:1004600095FF2B4901F049FF2A4901F05AFF29491C
:1004700001F040FF01F0DAFF6B0880B21F2D35D884
:1004800007221A4093009B18234A9B00944663441A
:10049000ED0729D5214A0004196841400A4080210E
:1004A00049018C4663441A601D4B1A68FA239B0469
:1004B00053401B0C1B4A1B0413601B4B1A68FA2386
:1004C0009B0053401B04194A1B0C136070BD07228C
:1004D0001A4093009B18104A9B0094466344F60709
:1004E00000D55EE7124A5EE7114AD5E703221A40BB
:1004F0000832C7E70E4AA8E707221A409BE70C4AD2
:100500007BE707221A406DE7E00F0020F00F002084
:100510000000344300007A440C0005400000FFFF57
:1005200020000540201005403400054034100540EF
:10053000FFFF0000F8B5BF4BDE469C464E464546E1
:10054000574604004068E0B5604401F01FFFBA4917
:1005500001F0D3FE2368061CB848C01A01F016FF4C
:10056000B54901F0CAFE311C041C301C01F0D9FE53
:10057000211C051C201C01F0D4FE011C281C01F0CC
:10058000B9FE01F05FFF311C051C201C01F072FF59
:10059000FE21041C8905281C01F0F2FE002800D071
:1005A00030E1281CA64901F0BCFEA64B051C1868CA
:1005B000984601F0EBFEA44901F0B3FEA34901F017
:1005C0009CFE211C01F093FE01F042FFA04FA14EC2
:1005D0003B6883463068994601F0D8FE291C824664
:1005E000584601F09EFE011C504601F083FE01F0CA
:1005F000EFFE01F0CBFE954901F07FFE964901F038
:1006000090FE954901F076FE01F010FF4B464A46F8
:1006100080B25B081F2A00D809E103221A40083281
:1006200093009B188D4A9B0094464A466344D20728
:1006300000D4FAE08A4A0004196848408021490140
:100640008C46024063441A604346586801F09EFE9F
:100650007D4901F066FE7D4901F04FFE211C01F04D
:1006600046FE01F0F5FE7B6883467068994601F00E
:100670008DFE59468246281C01F053FE011C50464F
:1006800001F038FE01F0A4FE01F080FE6F4901F098
:1006900034FE714901F045FE6F4901F02BFE01F077
:1006A000C5FE4B464A4680B25B081F2A00D8B9E017
:1006B00003221A40083293009B18684A9B00944614
:1006C0004A466344D20700D4AAE0654A0004196888
:1006D0004840802149018C46024063441A604346E9
:1006E000986801F053FE584901F01BFE574901F08C
:1006F00004FE211C01F0FBFD01F0AAFEBB6883464D
:10070000B068994601F042FE59468246281C01F025
:1007100008FE011C504601F0EDFD01F059FE01F00C
:1007200035FE4A4901F0E9FD4B4901F0FAFD4A491D
:1007300001F0E0FD01F07AFE4B464A4680B25B08CC
:100740001F2A6AD903221A40083293009B18434A91
:100750009B0094464A466344D2075CD5404A000455
:1007600019684840802149018C46024063441A6060
:100770004346D86801F00AFE334901F0D2FD3349FF
:1007800001F0BBFD211C01F0B2FD01F061FE8046CD
:10079000F06801F0FBFD4146061C281C01F0C1FD7C
:1007A000011C301C01F0A6FD01F012FE01F0EEFD6F
:1007B000264901F0A2FD284901F0B3FD264901F0C8
:1007C00099FD01F033FEFC6880B263081F2C1ED82F
:1007D00007221A4093009B18204A9B0094466344CA
:1007E000E40712D51E4A0004196841400A408021DE
:1007F00049018C4663441A60F0BCBB46B246A94628
:10080000A046F8BDFE208005CCE6164AECE70322A0
:100810001A400832DEE7134AA2E707221A4094E79B
:10082000104A54E707221A4045E70E4A04E7072218
:100830001A40F5E624FAFFFF0000FA43DC05000049
:100840000000B44200100020DB0F49400000344398
:10085000F00F0020E00F002000007A440C0005405B
:100860000000FFFFFFFF0000F0B5DE46454657469B
:100870004E46E0B510208FB000F074F9D0248023EC
:10088000802524065B026362AD010D20984600F0CE
:1008900069F91120656200F065F980239B026362AB
:1008A0009946636143466561636102F00DF8022178
:1008B000092000F03DF90221082000F039F9E1217A
:1008C0005748490201F0B4F80421002000F030F943
:1008D0000421012000F02CF90421022000F028F965
:1008E0000421052000F024F90421032000F020F960
:1008F0000421042000F01CF9852000220121494B2D
:10090000494D00011A609A60DA601D6158601960F3
:100910005A61DA611A625D62986159619A621A637A
:100920005A639D63D8629962404B6D461A68FA23F8
:100930009B0053401B043E4A1B0C13603D4B1A683E
:10094000FA239B0453401B0C3B4A1B041360FFF724
:10095000C1FCFFF703FD394B9B46394B9A462800F3
:1009600000F074F8002839D0364B2A699A423FDDEE
:100970002800FFF7DFFD2F4AAB6812681B045A40BE
:100980002D49120C12040A60284A1B0C12685340AD
:100990001B04274A1B0C13604B4663615B461B78A4
:1009A000002B2FD053461E685F6800F0F3FF801BBA
:1009B000B941002903DCD2D1234B9842CFD942461A
:1009C0006368134229D1626100F0E4FF5346186066
:1009D0005960280000F03AF80028C5D1FFF7BEFCA6
:1009E0004B46A3614346A36180239B016361B6E745
:1009F000FFF7B4FC4B46A3614346636180239B0130
:100A00006361ACE700F0C6FF534606000F005A468C
:100A10001E605F6001231370C7E7A261D4E7C04680
:100A20000080034000000540204E000034000540D7
:100A3000341005402000054020100540DD1F002037
:100A4000E01000206C0700004FC3000070B51021BB
:100A50000400364A88B093691942FCD1136800201B
:100A6000DBB2202B01D008B070BD10212F4A936952
:100A70001942FCD113680020DBB2402BF3D11E26B3
:100A80006B466D4629496E4410308A691042FCD18C
:100A90000A682A700135AE42F7D15A7819781202E5
:100AA0000A432260DA78997812020A4362605A791E
:100AB000197912020A43A260DA79997912020A437B
:100AC000E2605A7A197A12020A432261DA7A997A32
:100AD00012020A4362615A7B197B12020A43A26125
:100AE000DA7B997B12020A43E2615A7C197C12027A
:100AF0000A432262DA7C997C12020A4362625A7DBE
:100B0000197D12020A43A262DA7D997D12020A431C
:100B1000E2625A7E197E12020A432263DA7E9B7ECB
:100B200012021343012063639DE7C0460080034027
:100B3000094A83009A1810B5146840225440803244
:100B40002240064CC000A44663441A60044B9C46F5
:100B50006044416010BDC04604C0014004D0014063
:100B6000004001400123D02283401206936293612A
:100B7000094A83009A1811684022514080320A4085
:100B80000649C0008C4663441A60054B9C46052309
:100B9000604443607047C04604C0014004D0014037
:100BA000004001408023DB051868000F7047C046F5
:100BB0000FB400B5084883B001F0D4FE049B002BAD
:100BC00007D005A91800019101F054FD034801F078
:100BD000C9FE012001F066FD9C520010AC520010CD
:100BE00070B5EFF3108C72B60D4D2B68002BFCD056
:100BF000BFF35F8F0724CB08C618C05C01230C40ED
:100C0000A3401C000440034207D118433070BFF3D7
:100C10005F8F2C608CF3108870BD1000FFF7C8FF49
:100C20002C0100D0F8B54746CE46884680B5EFF394
:100C3000108C72B61C4D2C68002CFCD0BFF35F8F5B
:100C40009A4222D807210126894602E001329342C6
:100C500018D34D4637001540AF40D4080119045D44
:100C60002742F3D110003C430C70BFF35F8F00228A
:100C70000D4B1A608CF3108800280EDBC0BCB946FF
:100C8000B046F8BD01204042EFE7BFF35F8F00237D
:100C90002B608CF31088012040424346002BEDD09E
:100CA0000898FFF785FFC0462C0100D0044A107851
:100CB000431CDBB2172B00D9102313707047C046BA
:100CC0001010002010B5064B064C82B001000093B6
:100CD00018221F232000FFF7A5FF02B010BDC04659
:100CE000B0520010101A00200021044B044ABFF338
:100CF0005F8F02C39342FAD17047C046000100D013
:100D0000800100D0054B064A1360064A1360536009
:100D10009360D360136153619361704780808080DA
:100D200000E400E004E400E01F2318401E3B834081
:100D3000002905D0C021044A490053501360704770
:100D4000802201498B50FAE700E100E00122824055
:100D5000034B1B6813405A1E9341D8B27047C046DC
:100D600000E100E001238340014A13607047C04660
:100D700000E200E0064B10309B688000C358054A33
:100D800000209B1A2F229A424041C0B27047C046B1
:100D900000ED00E01410002070B50D00EFF3108698
:100DA00072B60F4A1368002BFCD0BFF35F8F0D4B58
:100DB00010309B6884001B590B4A934203D09D421C
:100DC00001D001F0BBF8074B9B681D51BFF35F8F4B
:100DD000BFF35F8F0022024B1A6086F3108870BD4C
:100DE000240100D000ED00E0C1010010F0B557462D
:100DF0004E46DE464546E0B585B006000091170038
:100E0000EFF3108B72B66A4A1368002BFCD0BFF365
:100E10005F8F0025674B5D579A46002D00DAA9E0E9
:100E20006B00654C01935B199B009846A146C14439
:100E30004B4652469B7910361370604BB6009B6848
:100E400099590B1B2F2B33D95D4B994200D0ACE045
:100E5000019B42469C465B4B6544AD0063535A4B35
:100E60000232A218043B9B1A1B05584A5B0D6519F8
:100E700013436B80564B0121AB80FF23AB71009B6A
:100E8000EF71AB604B460B4319004C4B9B6899517B
:100E9000BFF35F8FBFF35F8F0022454B1A608BF368
:100EA000108805B0F0BCBB46B246A946A046F0BDCE
:100EB00001200A008243D3798C46BB4231D8454693
:100EC000130044491B1B5B415943090D3D4B6353C0
:100ED0003D4B02356519043B5B1B1B053B4D5B0D10
:100EE0002B43AA464D466B800425AC465546E0444C
:100EF000131F44441B1B1B055B0D1D434B4699717F
:100F000000999D8099604946DF71334B014313601E
:100F1000BBE75800C01880002018C179B9422FD90A
:100F200002000623D356002BF3DA02932B4B6146C3
:100F30000393131D9A4604235B429C46E1445046AA
:100F40004B461B1A1B055B0D9C46204B9571984622
:100F50006346404603439380019B5A199200039BCA
:100F6000A418A380029B1C4AA371009B2260E77116
:100F7000A3608AE700F0E2FF002553465D574FE784
:100F8000908802934005131D9A46031561469C46BE
:100F90004046D444634604302018181AE023000564
:100FA000400D1B0218430390C5E700F0C7FF4FE751
:100FB000240100D0E21F00201410002000ED00E00A
:100FC000C101001000A1FFFF4410002000E0FFFF5E
:100FD00001BDFFFFAAAA00000148804701BD000033
:100FE00070B501240443EFF30581EFF3108C72B662
:100FF000214A1368002BFCD0BFF35F8F1F4B050005
:101000001F4AED1A6D416A43120D1E4D8900AE68EC
:1010100052B27658A6421CD00621595691421CD095
:1010200012215956914222D01E215956914220D068
:101030002A2159560324914210D0134B19781A7063
:101040008171BFF35F8F00220B4B1A608CF3108805
:1010500070BDAB680D4C5C50EFE7002461000919CE
:1010600089005B18FF21997109499980E5E70124FE
:10107000F4E70224F2E7C046240100D01410002057
:10108000AAAA000000ED00E0E21F0020C10100104C
:1010900001BDFFFF10B5084B084C82B00100009362
:1010A000002205232000FFF7BDFD002801DB1F23E0
:1010B000181A02B010BDC046CC520010E61F002026
:1010C000024B9C4661448900016070474000003437
:1010D00070B5114C114DAC420FD2FF262368002B86
:1010E0000CD0FFF7E3FD01002000FFF7E9FFA68029
:1010F000BFF35F8F0834AC42F0D370BDFFF7D6FD6D
:1011000001002000FFF7DCFF2671BFF35F8F08347A
:10111000AC42E3D3F1E7C046D8100020E010002035
:1011200010B50400FFF7C2FD01002000FFF7C8FF63
:10113000FF232371BFF35F8F10BDC04610B50400BD
:101140000120FFF7BFFD034BC3189B002360BFF3D3
:101150005F8F10BD40000034034B9C466144890002
:101160000160BFF35F8F7047400000340A4B19687D
:10117000EFF3108072B60A68002AFCD0BFF35F8FCD
:101180001B68BFF35F8F00221A6080F3108840BF96
:10119000002000217047C046BC1F0020F0B5DE468D
:1011A00057464E464546E0B587B0EFF30583032228
:1011B00001251A40954091008846A946B34B0392F9
:1011C0005C58B34B1D60B34B04934B46B24843632A
:1011D0000823E55E002D37DAA3881BB2002B00DB65
:1011E000ADE0A379002B00D0EEE00823E05E0028FC
:1011F00020DB430062691B18DB00D3189E68DD68A2
:10120000731C00D111E1A44801004144826A0B69BA
:10121000B71A9B1A9F4215D30123026A0398834091
:101220001A420FD09C4800F0ADFB8D4202DCCCD1BD
:101230008642CAD940BF07B0F0BCBB46B246A946F9
:10124000A046F0BD0E61EDE762696B0092465B1946
:10125000DB009A4453469E68DF6800F093FB8F42A0
:10126000BADC00D103E1002F00DAE8E05246534631
:1012700052691B699346049A934200D1D9E05246C1
:101280000821605E52880004594610439847009038
:1012900001910099019A0B001000134300D1CEE098
:1012A00013000A00B61A9F41002806DB7A4800F0B6
:1012B00069FB009E019F36184F4153469E60DF60D8
:1012C00000229A5E002A00DA86E7530099186069C6
:1012D000C900411802938B68C9689B46B94200DD7A
:1012E0007AE702D1B34200D976E708239C46A444AA
:1012F000059565462281A446029B2C0006E053001A
:101300009918C90041188D68C968AB469B18DB0065
:10131000C318B94206DC00D1B3E01C000023E25E32
:10132000002AECDA230064469C4653461A80634642
:10133000059D1D80A3881BB2002B00DA51E72269AE
:10134000EFF3108172B61368002BFCD0BFF35F8FF0
:101350000123A7885B42A3803FB22369BFF35F8F5D
:1013600000221A6081F31088002F00DA39E7230089
:10137000083322009A4666697B00DB19DB00F3180C
:10138000996850468C460824115FDD68002910DBFF
:10139000029306E0AB4244D00023E15E2000002926
:1013A00006DB4C006418E4003419E368AB42F1DD5D
:1013B000029B078000201F5E1980002FDCDA1400DA
:1013C000A379002B00D110E70023A3712600082386
:1013D000E15E08364B1C00D12CE70800A246656987
:1013E00002E03E004B1C1AD04B005B18DB00EF18EC
:1013F0000A008C46E95E7B881BB2002BF1DA0123E0
:101400005B42DC17BB60FC60824205D053463180F2
:101410001B893B8053461A8160464B1CE4D15446DD
:10142000E5E6A3686345B7D9C2E76B1C00D0EAE6DE
:10143000F8E65B4658461B69984700281BD153467F
:101440001B8822692381EFF3108372B6116800298B
:10145000FCD0BFF35F8F514662880A8022696580A5
:10146000BFF35F8F0021116083F31088B4E68642DA
:1014700000D8F8E6B0E65B461A685B680092019314
:1014800007E7B34500D848E74CE7C046A01E002058
:101490003C7005409D1100100040054070B52E4C79
:1014A0002569002D04D00A212C48FFF709FE70BDE4
:1014B0002B4E0321300000F05BFAE660FFF7F6FBED
:1014C000284B03229C46D02322701B061B68012157
:1014D0006370254B6044A3600F23800020610220CD
:1014E000638063694942A1801980023119864731BE
:1014F0001D83585218315A5275325C39995218323C
:1015000001319952183201319952183201319952F0
:10151000083518329D520231183299521832013171
:1015200099521832013199521832013199521832B8
:10153000013199521832013199520C4B0C49DC603F
:1015400001303562FFF728FC01210320FFF7ECFB97
:10155000084B1D60A7E7C0465C100020BC1F0020A0
:101560000040054040000034FFFF1000A01E002096
:101570009D11001038600540004870475C10002045
:10158000F8B51F0008AB1B7804001600002B08D12B
:1015900000F000FA32003B00121A8B41002B00DAF7
:1015A00052E02269EFF3108072B61368002BFCD072
:1015B000BFF35F8F0223E15E63694A005218D200D5
:1015C0009B182269002936DB1D886580BFF35F8F79
:1015D0000025156080F31088069A9E60DF601A610E
:1015E000079A5A615A8801325204520C101C002A80
:1015F0001FD082B25880080410432669EFF3108789
:1016000072B63268002AFCD0BFF35F8FA2881A80BE
:10161000A1802369BFF35F8F00221A6087F31088CF
:101620000A4923788C4601329A40E36863441A6081
:10163000F8BD0120DDE7BFF35F8F0023136080F367
:10164000108801204042F3E70020F1E73C20000031
:1016500070B501000469EFF3108C72B620680028A1
:10166000FCD0BFF35F8F02200D5E4C69680040190B
:10167000C00024180869002D36DB26884E80BFF391
:101680005F8F002606608CF31088E36063880498FF
:10169000013320615B0405985B0CA26060611A1C39
:1016A000002B1FD093B22804628018430A69EFF31D
:1016B000108C72B61368002BFCD0BFF35F8F8B8841
:1016C00023808D800B69BFF35F8F00221A608CF33B
:1016D00010880B7801329A40CB6808498C466344E5
:1016E0001A6070BD0122DDE7BFF35F8F0023036046
:1016F0008CF3108801204042F3E7C0463C200000F4
:1017000010B543890A1493421ADD53009B184269AD
:10171000DB00D3180469EFF3108C72B62268002A3C
:10172000FCD0BFF35F8F5A88090494B2090C8A4237
:1017300008D00369BFF35F8F00221A608CF3108812
:10174000002010BD8022120214435C800123026934
:101750008371BFF35F8F002111608CF310880449FF
:1017600002788C469340C268012062441360E8E727
:101770003C20000040787047F0B5C64600B582B006
:1017800004000D0000F006F924184D41002D02DA86
:1017900001242F4D644206267642F71736196F4111
:1017A000AF4214D811D000F0F5F832003B00121A05
:1017B0008B41002B15DC002B46D02000290000F0C7
:1017C00027F902B080BCB846F0BDA642EBD900268E
:1017D000002700F0DFF832003B00121A8B41002B8B
:1017E000E9DD00F0D7F832003B00121A8B41002BE4
:1017F0000ADB00230193174B3200009316483B008D
:10180000FFF726FF0130D8D000233900B0469C46B0
:10181000124A1348536A994204D8966A4645CCD274
:101820009942CAD10668EFF3108772B63368002B6D
:10183000FCD0BFF35F8F0368BFF35F8F66461E6007
:1018400087F3108820BFE5E7002AB6D0C9E7C04675
:10185000FFFFFF7F6D1100105C100020004005406D
:10186000BC1F0020F0B557464E46DE464546E0B563
:1018700006000F0085B0EFF3058399468B46002BD9
:1018800012D0384900204B6ABB4206D38A6ADB1B60
:10189000591E8B41B2424041184305B0F0BCBB46D3
:1018A000B246A946A046F0BD2F4B9A46DB68984643
:1018B00053461B784046039300F064F84246039B6E
:1018C000040004339B009B580D001B1A39003000A4
:1018D000001BA941894510DC0DD020BF214A002002
:1018E000536A5B45D9D3926ADB1B591E8B41B242C6
:1018F00040411843D1E78342EFD900F04BF8320062
:101900003B00121A8B41002B1ADB00230193174B6B
:101910003200009350463B00FFF79AFE011E0FDD98
:10192000104B5A6A5A451BD39B6AB34216D3504692
:10193000FFF7E6FE0B4A0020536A5B45ADD3D2E7C2
:10194000084A0020536A5B45A7D30020926ADB1B3C
:10195000B24240415A1E934118439EE75A45E6D190
:1019600020BFE4E7004005405C1000206D1100102E
:1019700010B5024A0248FFF733F910BDE8520010D3
:10198000141A00200300416A0A00986A596A8A42C0
:10199000FAD17047034B596A0A00986A596A914212
:1019A000FAD170470040054070B504000D00174A99
:1019B000536A1900966A536A8B42FAD130001900B3
:1019C00024184D41AB4216D813D0104B2A005B6A45
:1019D0009D4203D90D494B6A9342FCD3934207D1F0
:1019E0000A4A02E0516A994202D1916AA142F9D3AE
:1019F00070BDA642E9D9054B5B6A1C005A1CEFD0AA
:101A0000012201246442E5175242E3E70040054009
:101A1000064A536A9942FCD807D1044B02E05A6A3D
:101A2000914202D19A6A9042F9D87047004005402D
:101A3000F8B5040006200D0000F078F9002844D025
:101A4000374B3849E3185A1E9341802212049446BA
:101A50005B429B0D344A9B0563441360334A136019
:101A600018000A689043FBD12D4B314AE3185942C4
:101A70004B4180215B0049000620995200F056F945
:101A80002900C00000F084FB0130C3091ED14027AB
:101A900001226262A362266BF30722D4E36A254B1C
:101AA0000620E51800232B60266300F03FF939007B
:101AB000800000F06DFB7023E26A5A400E33134041
:101AC0002B601D4B23630323A364F8BD1B4A934281
:101AD0001ED900231A4A1B4F6262A362266BF307CA
:101AE000DCD5194B144AE3181A60656AA36A06200C
:101AF000AD01ED1800F01AF9144900F049FBAD02F0
:101B00000100280000F044FB0021FFF74DFFC5E76E
:101B10004006800E9F011A003F180300B9E7C04637
:101B20000080FCBF08C0004000E0004000F0004022
:101B3000C81F00202C10000001030000FEFF000061
:101B4000FFFF0000C0FF3F00303000004E0E0000DD
:101B5000F8B5DE464E4657464546E0B58B4605008D
:101B60000A991800160000F013FB0A9B6C001F0274
:101B7000324B64199C46A4006444636881469F42CA
:101B800000D967602B1FDBB29846012B30D9C023E8
:101B900080229B01E31812011A60294BAD005959AC
:101BA0009A4600291BD17301E026226853401E404B
:101BB000802342465B01E3181E60012A30D980234E
:101BC00080229B01E31812011A6053464A4667605F
:101BD0005A51F0BCBB46B246A946A046F8BD58696A
:101BE00000F0D6FA013043001B18033BFDD2DAE7C0
:101BF0005B46012BCBD1C02303229B01E3181A6063
:101C0000023AA3681A42FCD07301E0262268AD00B4
:101C100053401E4080230A4A5B019246E3181E602F
:101C20005A462168514003220A401A6001225B464D
:101C30009A40A3681A42FCD0C1E7C0460080004029
:101C4000181A0020F0B546464F46D646C0B51F00CC
:101C5000344B44009C462418A400644463688846BE
:101C60001600FF2B02D880235B006360031FDBB2EA
:101C70009A46012B30D9C02380229B01E318120120
:101C80001A60294B85005959994600291BD17301C7
:101C9000E026226853401E40802352465B01E31831
:101CA0001E60012A30D9802380229B01E318120193
:101CB0001A6080235B0063604B465F51E0BCBA460C
:101CC000B146A846F0BD586900F062FA0130430001
:101CD0001B18033BFDD2DAE74346012BCBD1C023CF
:101CE00003229B01E3181A60023AA3681A42FCD04F
:101CF0007301E0262268850053401E4080230A4A73
:101D00005B019146E3181E60424621685140032260
:101D10000A401A60012342469340A2681342FCD055
:101D2000C1E7C04600800040181A0020014B800027
:101D3000C0587047181A0020F8B5040021481E004A
:101D400017000D0000F024FA0100380000F020FA1E
:101D5000069B36041B031E432368002B20DB1A4B13
:101D60001A49E3185A1E93418022920194465B421D
:101D70001B0B174A1B0363441360164A13601F00B2
:101D80000A689743FBD1144B2560E2182123A06019
:101D900013602368002BFCDA0823E6601360F8BDAB
:101DA0003F2322681340AB42D9D1A3681B051B0D0A
:101DB0008342D4D1EE22E368D2021340B342CED1A3
:101DC000EDE7C046001BB7000040FDBF08C0004063
:101DD00000E0004000F000400430000010B5802416
:101DE0001C4BE4051C6000281AD001231A4C184330
:101DF0001A4BDC611A4C44401C6259629862802183
:101E0000144BC9051960174817490860E021C90437
:101E10001960002A07D18022144B12061A6010BDE7
:101E20000E4BD861EBE753019B1A9B009A18802355
:101E300012015B049A4209D213000D490B60074B53
:101E40005A608022094BD2051A60E8E7094B1A0054
:101E5000F3E7C04600B00540D3C007B0008005409E
:101E60002D3FF84FFCFF01000820014000A0054075
:101E7000781E0020FFFFFF008023024A9B000B43D7
:101E8000D362704700800540002310B50100988A96
:101E90001B8B984710BDC046162310B5010018884B
:101EA00002331B88984710BDF8B54746CE4680B52B
:101EB0000F1E18D014239946043304000025012670
:101EC00098464B461888434621681B88984701C4AA
:101ED000431E984101350640AF42F2D13000C0BCEC
:101EE000B946B046F8BD0126F8E7C046002370B5F4
:101EF00004000D00988A05491B8B984703000020B9
:101F0000002C01DB0130A040290098475542000019
:101F1000AA23064A1B0113608D235B00D36004498A
:101F2000044B19605368002BFCDA704700400240F4
:101F300000B0FA00006002407047C04610B501488A
:101F4000FEF736FE0C53001070B5074D074EB54234
:101F500009D20024013E761BB60808CD984723001D
:101F60000134B342F9D170BD5852001094520010A0
:101F7000054B064A06491A60064A074B1A601000CC
:101F80000B689843FBD1704700E00040BFCDFBFEDB
:101F900008C00040FE7F3C0000F00040044BDB6CBA
:101FA000002B03D18022034BD2021A607047C04637
:101FB000000011504C201150044A054B1A60054A8C
:101FC0001368DB018033FBD17047C046FFFFFF0180
:101FD00000F0004008C000404022034B9A675A6757
:101FE0001A67DA667047C04600F0014010B5FEF788
:101FF0007BFE10BDF8B52749274C284D641AA61062
:102000003200302E00D930222800920000F024FB4C
:10201000BC2C3BD830202F232C196407204A801B6E
:10202000E40F9B1B052B16D93700002C02D0B30000
:10203000771CEA50001B33199B004108EB18C900BC
:10204000C9181A605A6008339942FAD10123034231
:102050001CD09843C619B300EA50731C2F2E15D01C
:102060009B00EA50B31C2E2E10D09B00EA50F31CAC
:102070002D2E0BD09B00EA50331D2C2E06D09B003A
:10208000EA50731D2B2E01D09B00EA50054B9D603A
:10209000F8BDC04600010010C00100100000002083
:1020A000C101001000ED00E0002310B5294C82B002
:1020B000A367FFF72DFF0122274B1A60636C012BEA
:1020C000FCD10322254B1A60224A936B012BFCD1D1
:1020D000013300930121224A22480433FFF72CFEEA
:1020E000052301210093204A2048FFF725FE002206
:1020F000022104201E4BFFF7A5FD0022012105202F
:102100001C4BFFF79FFD0022002107201A4BFFF711
:1021100099FD002200210820174BFFF793FD802333
:10212000DB000093002200210920134BFFF710FD74
:102130000022104B00210620FFF784FD0420FFF74A
:10214000F5FD0E4900F024F801000020FFF794FE91
:1021500002B010BD008000403CB0004030B00040F4
:10216000002F685900800240008C864700C0024062
:10217000001BB70040597307006CDC0240420F009F
:1021800001480421014B184780100020A91E0010AF
:10219000114A936F9B0813D210665166002905D02F
:1021A000FFE7FFE7FFE7516F106F704704B50028A6
:1021B00001D00020C04303F01FF8002104BDC04639
:1021C000F0B5146E556E576F166FFFF7E5FF146686
:1021D000556657671667F0BD000000D010B501487E
:1021E000FEF7E6FC18530010132370B51D78012D7F
:1021F00019D014DD1D48FFF74FFE06001C48FFF7FD
:102200004BFE1C4C80223100200000F025FA022DEC
:1022100006D01948FFF738FE184B186070BD154CF2
:10222000174BA364F5E7174B124C23606360A36060
:10223000E36023616361A361E36123626362A3627C
:10224000E36223636363A363E36323646364A3645C
:10225000E36423656365A365E36523666366A3663C
:10226000E36623676367A367E367D9E75344000026
:1022700053460000701200204C330000B81E0020AE
:1022800089220010DD21001007B5604601880A0A86
:102290000230DF2AFAD1C9B2820804D3028840880A
:1022A0000004104300E00068014A5050039007BD4D
:1022B0007012002051434343C9188C46110C83B25D
:1022C0004B4310B4040C614392B280B2504362435A
:1022D0001C041B0C001910BC59411304120CC0182B
:1022E00051416144704700004840414048400E4B16
:1022F0005B6818470C4B1B6818470C4A936F9B0888
:1023000002D2094BDB681847F0B5146E556E576F53
:10231000166FFFF7F6FF054A14665566576716678E
:10232000F0BD014B9B681847BC1E0020000000D088
:1023300007B548404140484001E0C04607B542006B
:10234000120E03D0FF2A03D1420218D8C00DC005D7
:102350004A00120E03D0FF2A03D14A020FD8C90D3A
:10236000C9050122414005D4414001D5814207BD44
:10237000884207BD0143491801D0C043001807BD7A
:1023800000B5FFF7D5FF804100BD0000C10FC907B0
:1023900000D54042002817D0F44603B40B4B1B680D
:1023A000984706BC81409E384042803107D20B06D8
:1023B00007D04900490AC00510430843604701306F
:1023C000F8E7490A8902F5E770470000B81E0020C7
:1023D00041000A0E80231B067E2A0BDD9E3A0BDA93
:1023E000C1174002400818435242D0404900013111
:1023F0004843704700207047C00FC018013870472D
:10240000C0420DD300B540004008002100F00EF896
:10241000002801D4404200BD8020000600BD00001D
:10242000014BDB6918470000BC1E0020014B5B6AB2
:1024300018470000BC1E0020014B1B6B1847000012
:10244000BC1E0020014B9B6918470000BC1E0020E9
:102450004100090E862902DA044BDB6B1847044958
:1024600000B500F0E5F802BC8E46F5E7BC1E002082
:10247000DB0FC940014B9B6D18470000BC1E0020BC
:1024800010B50148FEF794FB60530010132310B5FC
:1024900010481C78FFF700FD0100012C0AD003DD75
:1024A00080220D4800F0D8F80C48FFF7EDFC0C4BEB
:1024B000186010BD084C5422200000F0CDF8220016
:1024C000084980322368002B00D1216004349442F3
:1024D000F8D1E9E753460000BC1E00204C33000051
:1024E000B81E002081240010F0B546464F46D6465F
:1024F000C0B5FF26C50DCB0D354088461700041C1E
:102500001E40002A01D000231360FF2D5DD0002E55
:102510005BD0002D5CD0201CFF2E51D03300013B3E
:10252000B246AB424CDC802109048946E20F6402CA
:10253000640A0C4341464E464902490A0E43B146DD
:10254000AB4247D05346ED1A002A4CD06442002DCE
:1025500058DD4B460120D9114042FFF719FE1D23DB
:1025600000219C462A000C2D00DD0C2266466312D9
:1025700094404343B61A334126004C469140013300
:102580005B105C435918341BAD1A002DEADCA145E1
:102590003FDC4B46E41AA14548DCE41A02316300F3
:1025A0004B452BDC3DD04346002B00DA4942002F3F
:1025B00000D03960962153462000C91AFFF73CFF2E
:1025C000E0BCBA46B146A846F0BDFF20C005F7E71B
:1025D0000020F5E7B442F3DD7300002A1CD1AA46BF
:1025E0000121E41ADFE7002DB3DC0021B44205DB52
:1025F000A41B012163009E4200DBD4D14B46013174
:10260000E41AD0E700214B46E4180DD54C440239BA
:10261000C5E7002CC3DAF6E70121AA461C1B494294
:10262000C1E7CB07BFD5E9E70139B8E70131B6E724
:1026300010B50022FFF758FF10BDC0460148042125
:10264000014B184790100020A91E0010014B1B6879
:102650001847000090100020014B5B6818470000ED
:102660009010002010B5002800D110BD00F030F906
:10267000FBE7C04610B5094A0300146884B0002C7B
:1026800008D0012200910648524203A9A047012028
:1026900004B010BD00F066F90020F9E7741E0020B8
:1026A0006526001000BEFDE710B5FFF7FBFFC04632
:1026B00070B5FFF749FC074D074EB54209D200241B
:1026C000013E761BB60808CD984723000134B3427B
:1026D000F9D170BD945200109C520010030010B547
:1026E000080011001B68984710BDC046F0B5C646EB
:1026F00000B5437D07000C001600002B46D0002AD1
:1027000017DD0B780A2B24D000239846012E13D016
:1027100001252900635C01350A2B26D0B542F8D18A
:10272000464509DCA419013C23780D3B5A4253412C
:102730003B7580BCB846F0BD4346E018A419F11AB9
:10274000013C3B68984723780D3B5A4253413B7507
:10275000EFE7037D002BD7D102210F483B68984754
:10276000012EDFD001239846D2E7631E5B5C0D2B60
:10277000D4D0884504DA4346C91AE0183B68984724
:10278000022105483B68A8469847C7E7036811003F
:1027900020009847CDE7C04660540010F0B545468C
:1027A000DE464E465746E0B583B091461C00804653
:1027B0000D00FFF7EFF80023304A12184B41002BB1
:1027C00002DA01222E4B52422E4908008A4602F0BC
:1027D0002BFD07006B1C03D1404602F0B5FC050041
:1027E000002C27D0284E294B1C68002C18D04B46B3
:1027F000002B21D1264B994602E02469002C0FD0F2
:102800002368002BF9D04B461B68002B01D09C425B
:10281000F3D120002A004146B0472469002CEFD1B3
:10282000002F26D1280003B0F0BCBB46B246A94613
:10283000A046F0BD174ED6E7154B99460A239B4696
:1028400002E02469002CEBD02368002BF9D04B4622
:102850001B68002B01D0A342F3D12A00414620007F
:10286000B0476B465A462000DA71D91D0122B047A5
:10287000E7E7504602F0A8FCD4E7C04640420F000C
:10288000FFFFFF7FD8100020ED260010681A0020FF
:10289000701A0020DD2600100A4A1368002B05D1AB
:1028A0000CE01A001B691032002B07D08342F8D1CC
:1028B000002902D118691060196170470029FCD005
:1028C0001060FAE7681A002010B500F07FFA10BD1A
:1028D000F0B5CE46474680B583B06B460600DD1D99
:1028E0002870FFF757F80023194A12184B41002BA4
:1028F00002DA0122174B524217490800884602F0BB
:1029000093FC164B81461C68002C14D0144F02E037
:102910002469002C0FD02368002BF9D03B68002BD2
:1029200001D09C42F4D1200001222900FFF7DEFEF5
:102930002469002CEFD14B46002B05D1300003B0A9
:10294000C0BCB946B046F0BD404602F03DFCF5E7DC
:1029500040420F00FFFFFF7FD8100020681A0020C0
:10296000701A002070B5040002F0EEFB0123010094
:10297000050001222000FFF711FF084B1C68002C06
:1029800006D06368002B05D098472469002CF8D145
:10299000280070BD2469002CF3D1F9E7681A0020E3
:1029A0007047C0460022014B1A707047E31F002099
:1029B0004B790020FF2B0BD18B79002B08D1CB79E1
:1029C000012B05D1082A03D9024B8A7809301A70E5
:1029D0007047C046E31F00200120704710B5012951
:1029E00013D112495379107909781B02034300204F
:1029F000994200D010BD5378012B08D0022BF9D199
:102A0000642200210020FFF7E9F90120F2E7D378E2
:102A100091781B021943480ADB0501D4012040428A
:102A20007F238A05D20F1940FFF760FAE31F0020C9
:102A3000004870472C55001070B5050014000120A7
:102A4000012909D153780020012B05D1637912792E
:102A50001B021343072B00D070BD21002800024A3F
:102A60009F3301F055FAF7E78454001001230370F7
:102A700000487047645400104B780A781B021343D7
:102A80008A7810B512041A43CB781B06134396229A
:102A9000D200934200D010BD00220120110040421C
:102AA000FFF724FA024B1860024B19607047C046CA
:102AB000081A00200C1A002010B5024B1878FEF7F7
:102AC00051F910BDE41F0020154B70B51A68002A9B
:102AD00022D0EFF3108172B610680028FCD0BFF34B
:102AE0005F8F00200F4A596010701B68BFF35F8F23
:102AF000186081F31088002400250B4E3078FEF713
:102B000025F9002804D1002400252900200070BDEB
:102B10003078FEF727F9F8E7FA240025A400ECE75F
:102B2000981E0020E51F0020E41F002070B504005F
:102B300000200E0001F00AFB002834D0002001F034
:102B40001BFB00282FD0FEF725FF0023174A121881
:102B50004B41002B16DB164D280002F065FB0028C8
:102B600021D0002001F0F2FA00280FD1012000212D
:102B7000404200F001FD03246442280002F024FBDF
:102B8000200070BD01220B4B5242E4E7002001F00F
:102B9000F3FA0028EAD021003200002001F0F6FA12
:102BA000041EEAD1E7E703246442E9E740420F004C
:102BB000C01F0020FFFFFF7F10B5FEF7EBFE0023D4
:102BC0000D4A12184B41002B02DA01220B4B5242E4
:102BD0000B4C200002F028FB00280CD00120002123
:102BE000404200F0C9FC002001F014FB0028F5D1A0
:102BF000200002F0E9FA10BD40420F00FFFFFF7F06
:102C0000C01F0020F8B5DE46574680B505000C0011
:102C1000FEF7C0FE0023364A12184B41002B02DAA1
:102C20000122344B5242344908008A4602F0FCFA31
:102C3000002803D1C0BCBB46B246F8BD002001F05D
:102C400085FA00284AD00026002C43DD2B4B9B46FA
:102C500014E0A919002001F017FB07000120002152
:102C6000404200F089FC002001F0D4FAFEF792FE09
:102C7000224BF61918605960B4422BDD002001F098
:102C800023FBA71B0200B84200DD3A00002AE0D176
:102C900001200021404200F06FFC002001F0BAFA50
:102CA000002001F053FA002814D0002001F00CFBA2
:102CB0000028E1D1FEF76EFE5B460F001A685B68E4
:102CC000002184460E4812184B419F4202D8D3D1AE
:102CD0009445D1D9504602F077FAABE700200021A5
:102CE000064B18605960504602F06EFAA2E7C046E3
:102CF00040420F00FFFFFF7FC01F0020681200202E
:102D000020A1070030B52A4C85B00021200002F038
:102D10007BFA00281CD1274B1A68002A16D0EFF343
:102D2000108172B610680028FCD0BFF35F8F0124B9
:102D30002148596002781B68D2B20470BFF35F8FDC
:102D40000020186081F31088002A17D005B030BD2C
:102D500001200021404200F00FFC002001F00CFA9D
:102D60000500200002F030FA002DEFD0134B1B6855
:102D7000002BEBD0124A10689847E7E7FEF7FCFB00
:102D80000400FEF707FEFA220023920012184B41BE
:102D9000002B02DA01220B4B524201210291002149
:102DA0000191094920000091FEF7EAFBCEE7C046F9
:102DB000C01F0020981E0020E51F0020081A0020D8
:102DC0000C1A0020FFFFFF7FC92A0010D02310B586
:102DD0001B0684B01C68FEF7CFFBFEF7CBFCA042BD
:102DE00002D0002004B010BD294B002100201B7828
:102DF00001F05EFD27480368002B45D00120FEF757
:102E000049F9FF23244C254920701840FDF7C4FFE1
:102E100020780121FDF788FF0520FDF7ABFF002892
:102E200024D1082200211E48FFF710FCFEF7A4FB66
:102E30000400FEF7AFFDFA220023920012184B4166
:102E4000002B02DA0122174B52420121029100218C
:102E50000191154920000091FEF792FB0028C0DB8C
:102E600012480121FFF718FD0120BBE70120FDF703
:102E700029FF0B4B01001800FEF76EF90022052018
:102E80000B49FDF7B3FFEBE7FEF74AF9B6E7C0469B
:102E9000E0560010C01F0020E41F0020052D001088
:102EA000981E0020FFFFFF7FC92A0010A0100020FD
:102EB000B92A001000487047C855001000487047F4
:102EC0007455001010B5040017480378002B20D06B
:102ED000002C06D1154B16484380063BFF3B038070
:102EE00010BD052C1DD8134BA400E0581249012336
:102EF000013804E001330A800231142B0DD0C25C8A
:102F0000002AF7D1C022DBB25B00920008481343CD
:102F1000E5E7112100F01AF8DAE7CA2304489B001C
:102F2000DDE70020DCE7C046CC1F002009040000DC
:102F3000401A00205C550010421A002010B50248CB
:102F400000F0D8F810BDC046B01E002030B54B1EB2
:102F5000012900D1A7E0664A11780D092C00303410
:102F60009F2900D9A2E00470012B00D1BEE00F21FF
:102F7000147821400C003034092900D998E04470BD
:102F8000022B00D1B2E054782509290030319F2C62
:102F900000D990E08170032B00D1A7E00F212140E0
:102FA0000C003034092900D987E0C470042B00D10B
:102FB0009CE094782509290030319F2C00D97FE0CE
:102FC0000171052B00D191E00F2121400C0030341C
:102FD000092900D976E04471062B00D186E0D47827
:102FE0002509290030319F2C00D96EE08171072B13
:102FF00000D17BE00F2121400C003034092966D834
:10300000C471082B00D171E01479250929003031F1
:103010009F2C5FD80172092B68D00F2121400C0032
:103020003034092958D844720A2B5FD054792509C5
:10303000290030319F2C52D881720B2B56D00F2192
:1030400021400C00303409294BD8C4720C2B4DD0D0
:1030500094792509290030319F2C00D9073101735B
:103060000D2B43D00F2121400C003034092901D908
:1030700037310C0044730E2B38D0D1790C09220063
:1030800030329F2900D9073282730F2B2ED00F22A6
:103090000A4011003731092A01D830321100C173BA
:1030A000102B23D010300023037030BD07345AE7B3
:1030B00037310C0063E707316CE737310C0074E7F8
:1030C00007317DE737310C0085E707318EE737316F
:1030D0000C0095E707319DE737310C00A3E7073176
:1030E000AAE737310C00C4720C2BB1D1C018DAE753
:1030F000B01E002010B588B004000D2200216846E3
:10310000FFF7A4FA0D22002104A8FFF79FFA4B2332
:103110006A466846137004A90D2202F04DF8152185
:10312000082220006944FFF797FA08B010BDC04696
:10313000F8B500F047F90C23194DFF22AB670520C5
:103140001849FDF753FE184C402200212000FFF7DC
:103150007DFA4027002301262121144A6670278327
:10316000A260136063545F31618445396354104A2F
:1031700010496360E2602787A1620B606362E262CC
:1031800002F02AF880239B052E64EB6490230A4A00
:103190000120EA508022094B5202DA64F8BDC04691
:1031A0000000115045050020741A002084001050C2
:1031B000000110508000105010D00100002011506C
:1031C00010B501210520FDF7AFFD10BD10B500229F
:1031D0000021024800F016F910BDC046941A0020E4
:1031E000044B1970002904D080219023024A8902DF
:1031F000D1507047DF1F0020002011500B785B0674
:1032000002D14B78052B00D070478A78014B1A60A9
:10321000FAE7C04600001150F0B5C646C87800B5C0
:103220008007830F1800012B60D08F780A794B79C3
:103230007F213940FC091B024E001343334D3219E4
:103240005201AA18977001276740577000275B0545
:103250005B0DD7701383D076B846CA00012C32D0EC
:103260002B4FBC468F016244BC46AC446746BA60F3
:1032700047461760002932D0264AC9009046624668
:10328000414451603F223F339343022837D02249C3
:1032900037190A687F01D3180B602049EF19FA60CB
:1032A0008B422ED836197601AD19EB7E1C499B0650
:1032B0004A4013438022120613436A6813600120B8
:1032C00080BCB846F0BD174FBC468F016244BC4677
:1032D000AC446746BA6247461760002908D100230C
:1032E00064012C196360104BE360E8E70020E7E716
:1032F0000B4AC9009046624641445162C2E75B00F6
:10330000C5E7FEF71BFEFA68CCE7C046741A00203A
:1033100084001050040010507C1E0020FF0F10503D
:1033200000001050800010500001105010B501F046
:1033300053FF10BD10B57F200C0020404000E40971
:10334000110000191A00034B4001C01800F05AF890
:10335000012010BD741A00207F23180000B508401A
:1033600083B00B4204D14B424B41084A0133936670
:103370008022C9094000064B401840010021C018B6
:10338000120101F061FF03B000BDC04600201150E2
:10339000741A00207F22130010B50B400A4200D19E
:1033A00010BDC9095B005B1804485B01C01800230D
:1033B00000220349C37001F047FFF1E7741A0020AF
:1033C000FFF7FFFF80220A4B520410B51A60094B29
:1033D00009491A6010000B689843FBD18022002134
:1033E00052010648FFF732F90922054B5A6710BD12
:1033F00000E0004000F0004008C000400000105015
:1034000000001150002310B5C382013382828376FD
:103410000161040001F0E8FE002804D0802190231F
:10342000074A8902D150200001F0BEFE002802D0D8
:103430000123237710BD200001F0FEFEFAE7C0460D
:10344000002011507047C0467047C04600207047AA
:10345000002070477047C0467047C0467047C0465E
:103460007047C046024B5878431E9841C0B270471F
:1034700020150020024B18784007C00F7047C04647
:1034800020150020F0B5D6464F464646C0B52F4B16
:1034900007009A461B780E00FF2B50D1002941D01F
:1034A000002154222A48FFF7D1F80022294C2A4B48
:1034B00020001A70FDF734FE284B1C60284C2000B9
:1034C000143CFDF73BFE200001F0FAFD254B264D94
:1034D0001C60264B002B04D02800FFF7C7FA244BB2
:1034E00018602449002489462149002388462A7807
:1034F00010E043461B6862019B18002B12D05B68EA
:10350000002B0FD098472A780134E4B2511C2300D5
:10351000A14209DBA242ECD89B1A5B014B445B68D9
:10352000002BEFD100200BE05346310038001F7014
:10353000FFF7FEFD0028F5D03800FFF741FE01201F
:10354000E0BCBA46B146A846F0BDC046D410002043
:103550002015002018150020E01F00207415002001
:10356000CC10002078150020DE1F00206D2A0010EE
:103570007013002084560010F0B5DE4657464E46C4
:103580004546E0B5C84B91B002931B78FF2B00D1A4
:103590003EE1C64BC64E9B465F46C64B0DAC019303
:1035A000C54B009335686A69EFF3108172B61368F2
:1035B000002BFCD0BFF35F8FA9612800210001F030
:1035C000AFFB6A69AB69BFF35F8F0021116083F3C2
:1035D0001088002800D11BE16378082BE2D89B00FB
:1035E000FB589F466368002BDCD0A0689847D9E75A
:1035F0007F222179AF4D0A405300EB189846C80945
:10360000804440460123303005799D43057105799A
:1036100003339D430571002A00D100E14346A74AC8
:103620001B7D1278934200D3EFE0A54A5B01156839
:10363000ED18002D00D1EBE0A36862792078AD6928
:10364000A847AFE79F4A1378002B00D1E0E013783A
:10365000013BDBB213701378002BA3D10122954DEF
:1036600001212B78042013432B703423EA5C8A4316
:10367000EA54EA5C8243EA540133EA5C8A43EA543E
:10368000EA5C8243EA54237800209B4600F09EFCCB
:10369000602223791A40602A00D1EFE0402A00D14D
:1036A000F5E0DB06DB0E012B00D113E1022B00D18C
:1036B000C7E0002B00D0E1E0202A00D11CE2002A64
:1036C00000D0DBE06379092B00D9D7E07E4A9B006C
:1036D000D3589F46774D2B78DB0700D462E7FFF77E
:1036E000BFFE5FE7019BDB78DB0700D45AE7606829
:1036F000FFF7AAFE56E76F4D2B78DB0700D451E7A2
:1037000028780007C00FFFF7A9FE4BE723786A4926
:1037100099468B46694B6A4998468A4639001A7819
:1037200047460023B04600254E46894610E05346E2
:103730001B686A019B18002B00D176E0DB68300023
:1037400098473A780135EDB2511C2B008D4244DC8C
:103750009542ECD39B1A5B015B44EFE72378584911
:103760009946564B8A4698463100BB464E461A78D3
:1037700000250023474689460FE053461B686A012F
:103780009B18002B55D0DB68300098473A780135FC
:10379000EDB2511C2B008D4207DC9542EDD39B1AF4
:1037A000009A5B0194466344EDE7019D5422002199
:1037B0002800FEF74BFF1022FF214448FEF746FF8A
:1037C00028002022FF2114304E465F46FEF73EFFC0
:1037D00000F0F2FBFFF740FEE4E6364D54220021F4
:1037E0002800FEF733FF1022FF21281DFEF72EFFD1
:1037F00028002022FF21143046464F46FEF726FFC0
:1038000000F0DAFB2379AB70CCE6501C984213DA57
:1038100011B0F0BCBB46B246A946A046F0BDA368B5
:103820006279207800F0E6FBBCE646464F46214D23
:10383000E6E74E465F46CBE71F4D9B1A5B015D19DD
:10384000FAE67023217A0B4218D1C80982460F3359
:103850000B405B0098461948EB1853441B7D0078D9
:103860009946834266D216485B01006881469944B6
:10387000002A00D15FE14B46002B68D1207800215F
:10388000FFF76AFD80212078FFF766FD8AE6104881
:1038900000F09CFB012158460EAAFFF7CDF8002846
:1038A00000D07FE6EAE7C046D4100020DC550010C7
:1038B000781500202015002084560010DE1F0020FF
:1038C00070130020E01F0020005600102415002077
:1038D000392A0010237A0F2BD0D8CF4AEB181B7946
:1038E0001578AB423ED3691C9942C7DB5D1BCB4BBD
:1038F0006D01ED18686900F069FB012158466B699C
:103900000EAA9847002800D04CE6602215002379C3
:103910001D401A42B2D163790A3B012BAED800F0A8
:1039200055FB63790A2B00D199E158460EA900F0A6
:10393000D9FA37E6431C4B4500DAF7E04B461B1A31
:103940005B019946B5488144002A00D1F3E04B461B
:10395000586900F03BFB4B46012158465B690EAAB3
:1039600098479CE7AE4A5B011568ED18002DC1D160
:1039700084E7A37999466B789945D6D06B78002B6C
:1039800000D033E14B466B70002B00D12BE1484651
:103990000138C0B2FFF792FA002800D17EE14378E7
:1039A0000793022B00D079E10122C179B1468B1136
:1039B000491113400A40302112015B0113432A7858
:1039C000A8468A4313432B7009239A4682445646DD
:1039D000BA46C37882781B021343C31805938E4BF3
:1039E00004938E4B08938E4B09938E4B0A93059B41
:1039F000B34200D855E1737801220B2B03D1337801
:103A0000F278F6187378042B00D044E1059B002768
:103A10009B1B9BB20693049B0B921D780023039380
:103A20001BE0099A7B011568ED18002D00D132E1E9
:103A3000310058462B69069A98478446082803D9CE
:103A4000069A824200D313E1049B01371D78FFB22E
:103A50006B1C03979F4200DD1DE1BD42E1D8039B33
:103A60005D1B089B6D019C466544E1E76B780CAAE1
:103A700002321370584601230EA900F049FA91E56D
:103A8000E3881A0AD8B20F2A00D9F7E666499300EC
:103A9000CB589F460EA800F09FFA5846A179FFF731
:103AA00095FB02222B7813432B707BE5E388012BD7
:103AB00000D0E3E608222B78584693430EA92B70DA
:103AC00000F010FA6EE5022029780CAB9A1C8B06E8
:103AD0008908DB0F01400B431380584602230EA9CF
:103AE00000F016FA5EE5E388012B00D0C6E6082256
:103AF0002B7813432B7018E7237A0F2B00D9BDE6E0
:103B0000EB181D79444B1B789D4228D2444B6D0124
:103B10001B685D19002D00D1B0E6686900F056FA07
:103B2000012158466B690EAA9847B8E6002A00D0D2
:103B3000A4E600239946627902201300039283438E
:103B4000012B15D0002A00D098E62B0043445344A3
:103B500030331B790CAA9B07DB0F0232BCE75A1CDF
:103B6000AA4200DA8AE6ED1A2C4B6D01ED18D4E773
:103B7000E388002B12D1029B1878039B012B23D0E2
:103B8000FFF7EAFB43460221EB18534430331A791E
:103B90000A4301211A711A790A431A714B46002B04
:103BA00000D1FFE4586900F011FA4B4601215B692E
:103BB0000EAA58469847002000F008FA3523EB5C1F
:103BC000DB0700D5EEE4B0E6FFF7E4FB4346022155
:103BD000EB18534430331A798A431A711A790399CE
:103BE0008A431A71DAE7FFF737FC9EE60021584650
:103BF000FFF7F6FA5846FFF799FBAB7807490393AE
:103C00000491054B064998461A780591002329002E
:103C10001D008A461BE0C046DE1F002084560010AF
:103C2000701300203415002028560010059B6A01EF
:103C30001B689B18002B4DD0DB68584698474346BD
:103C40001A780135EDB2511C2B008D422EDC9542C5
:103C5000ECD39B1A049A5B0194466344ECE70CABEB
:103C60009A1C584601230EA9157000F051F999E4E9
:103C70000B9A012A4FD0002A3CD00023B07804E0F0
:103C80000133DBB20F71934234D2C118C9B241443F
:103C90000D79FF2DF4D04E464546574600236B70F4
:103CA000ECE54E465746FFF7D5FB3EE65546542217
:103CB00000212800FEF7CAFC1022FF21281DFEF774
:103CC000C5FC28002022FF211430FEF7BFFC039B17
:103CD000AB7057E65546FAE7FEF7AAFE021E00D182
:103CE000CCE5D37891781B020B4358460EA900F01F
:103CF0000FF9D4E565463B002A0031000A9800F030
:103D00007FFEAC46049B039A1B78664401339342C2
:103D100000DB6CE6BFE7174B29699942ADD1079AE2
:103D2000ABE7FFF793FB021E00D1A7E558461378D7
:103D30000EA900F0EDF8B2E52189FFF7C3F8021EE5
:103D4000F4D19BE5022A0FD0FFF782FB021EC8D1F7
:103D500094E5FFF7AFF8021E00D18FE51223584615
:103D60000EA900F0D5F89AE5FFF7A8F8021EB8D121
:103D700084E5C046C9430010F8B557464E46DE46B6
:103D800045460C00E0B516001F00002A3CD0702309
:103D900098461E4B00259B461D4B9A461AE05B46F3
:103DA0001B78200099465346997800F0EBFD0028D7
:103DB0001CD021004846FFF72FFA002816D0A37820
:103DC000DA09012A19D00A9A013513702378E41808
:103DD000B54219DA6378052B08D1E3789B079B0F6E
:103DE000BB4203D14246A3781A42D8D00020F0BC8F
:103DF000BB46B246A946A046F8BD0B9A01351370E2
:103E00002378E418B542E5DB0120F0E7D410002068
:103E100020150020702270B58B780C001A4201D05A
:103E2000002070BD064B20001D78064B997800F0ED
:103E3000A9FD0028F4D021002800FFF7EDF9F0E7F4
:103E4000D4100020201500200B007F2010B5184052
:103E5000DB0934334000044AC018044B1168C01811
:103E600000F04CFD10BDC046741500202015002048
:103E70000B007F2010B51840DB0934334000044AA2
:103E8000C018044B1168C01800F060FD10BDC0469A
:103E9000741500202015002070B57F240F480C40B9
:103EA00064000419CD09641930342079C00701D5A4
:103EB000002070BD01262579094835430078257119
:103EC000FFF738FA0028F4D10122237993432371B4
:103ED0002379033293432371EAE7C046201500207B
:103EE000D410002070B5094C0600082220000D00F7
:103EF000FEF7B2FB00238021E360A3602B78300043
:103F0000994300220023FFF7C7FF70BD0015002072
:103F1000F8B5CE4647469046254E80B581460822E4
:103F200030000D001F00FEF797FB4346B3600023EF
:103F3000F381EC79AB7924021C43231CBC4200D9E9
:103F40003B1C9FB2B381002C0DD0002F17D04246EE
:103F5000002A2BD0402F1BD89FB233787F2B1CD840
:103F60000021144A0FE080212B7800229943484613
:103F70000023FFF791FFC0BCB946B046F8BD7F23D0
:103F80000022317899433B004846FFF785FFF2E76E
:103F900040239FB233787F2BE2D9064C3A0041464A
:103FA0002000FEF759FB80212200ECE70020E2E729
:103FB00000150020C014002010B514220021024872
:103FC000FEF744FB10BDC04600150020014B1861F0
:103FD0007047C0460015002010B5054C01000822AE
:103FE0002000FEF739FB0023A360E36010BDC0464C
:103FF0000015002070B5384C1D0023780600DA0942
:10400000C9098A4210D00020002D00D070BD2100C7
:104010003000FFF7F3F82369002B03D022000321BF
:10402000300098470120F1E77F2B06D8A0680028D0
:1040300034D02A002949FEF70FFBE289A168521902
:10404000E38892B24919E281A160934214D03F2DD6
:1040500012D9A389981A051C80B240282AD8207842
:10406000ADB27F2828D800219A4232D01B4A2B00BB
:104070003000FFF711FFC9E72369002B05D02200AC
:1040800002213000984700280AD08021237800229E
:10409000994330000023FFF7FFFEB7E70020B5E7A4
:1040A00000213000FFF758F930008021FFF754F964
:1040B0000120ABE74025D2E79A4207D0074C2A00FF
:1040C0002000FEF7C9FA80212200D0E780210022DB
:1040D000CDE70022CBE7C04600150020C014002029
:1040E00070B50400FFF7BEF9002800D170BDFFF7DE
:1040F000C1F90028FAD1C8236343124DEE18F178B4
:104100000029F3D010335D19280000F0F3FD3F289B
:10411000ECD90020F178FFF797FE0028E6D02800C0
:1041200000F0E8FDF1783F2807D9074BE201D218EB
:1041300000204023FFF7B0FED8E70020FFF798FEED
:10414000D4E7C046F81300207413002010B5040013
:10415000FFF788F9002801D1002010BDFFF78AF988
:104160000028F9D1C8226243024B01309B181B7909
:104170001840F2E7F8130020C82310B54343024863
:10418000181800F099FD10BD08140020F8B5C824D7
:10419000802344431C4F103405003C195B029A42B3
:1041A00000D31A4A200092B200F008FE0600FFF782
:1041B00059F9002801D13000F8BDFFF75BF900285C
:1041C000F9D1C8236B43FF18FB78002BF3D02000F4
:1041D00000F090FD3F28EED90020F978FFF734FE7B
:1041E0000028E8D0200000F085FDF9783F2807D9A5
:1041F000074BEA01D21800204023FFF74DFEDAE713
:104200000020FFF735FED6E7F8130020FFFF00007F
:1042100074130020F8B50400FFF724F9002801D139
:104220000020F8BDFFF726F90028F9D1C82565431D
:104230002E00134F2436F619300000F03DFD002803
:10424000EED07F190020B978FFF7FEFD0028E7D0F7
:104250000C4DE401651929004022300000F0AEFD4C
:10426000B978041E08D003002A000020FFF714FECE
:104270000028D5D02000D4E70020FFF7F9FDCFE7D4
:10428000F8130020B413002070B5C82444430C4B2D
:104290000500E41880235B029A4200D3094A2000FB
:1042A00092B200F051FE0600200000F005FD3F280C
:1042B00001D8300070BD2800FFF7ACFFF9E7C04619
:1042C0001C140020FFFF0000C82310B54343024820
:1042D000181800F00FFD10BD1C140020F0B50025CB
:1042E000184C83B0C82200212000FEF7AFF9164B0E
:1042F00021001D70FF236371E1235B02A360200096
:1043000008234022A37338310095073B103000F09A
:104310009DFC270001232100200026004022783147
:104320000093B837243000F091FCC0363800FCF719
:10433000F7FE3000FCF7F4FEE56127622663656353
:1043400003B0F0BDF8130020F41300200A4A116BEB
:10435000136A00290CD0002B07D00023D3615363CC
:104360001363002313620120704753631363FAE75A
:10437000002BF8D0D161F4E7F813002070B50F4C92
:10438000052200212000FEF761F90D4D2B78DA0798
:1043900007D50C4C9B070CD50121200000F0B0FE86
:1043A00070BD2000103000F08BFE2B78054C9B0771
:1043B000F2D4200000F084FEEEE7C046F81300209F
:1043C000F41300201C140020F0B54B79060083B0D4
:1043D000022B02D18B79022B03D00025280003B0D9
:1043E000F0BD204FBB78002BF7D18B7809253B70AF
:1043F0000C780C196378242B07D00CE02378E41890
:104400005D196378ADB2242B05D19542F6D9002011
:10441000FFF766FEE2E71A00052B15D0042AF6D155
:1044200063790A2BF3D1104B277801930133009362
:1044300030000223E119023AFFF79EFC0028CCD09D
:104440000E35ED19ADB2E2E721003000FFF7E2FCD6
:104450000028C2D0A3787B7023785D19E4186278B5
:10446000ADB2DBE7F8130020FA130020F8B56023A3
:1044700014001278050013400020202B07D1304A89
:104480006379277916781B023B439E4200D0F8BD22
:104490006378222B1AD007D8202B34D0212BF6D1C9
:1044A00001293ED00120F2E7232BF0D1012940D091
:1044B0000329F7D1234B002BF4D0E178A37809022C
:1044C0000020194300E000BF0120E0E7012930D0BF
:1044D0000329E7D101252E00A378E47802392402CC
:1044E0001C431471264024321000714000F008FE75
:1044F000154B002BD6D06208002031002A4000E086
:1045000000BF0120C3E701290BD00329CAD10F4BFB
:10451000002BC7D0083200201100FEF7ADFA0120B1
:10452000B5E7072321002800094AFFF7F1FC012025
:10453000ADE721002800FFF7D5FC0120A7E7C04622
:10454000F81300200000000000000000792A00108D
:1045500000140020F0B54F464646D646C0B5364D4D
:104560008046EA780C001F008A423CD0AB788B4230
:1045700010D00020E0BCBA46B146A846F0BD2F4B93
:10458000002B04D02E4800F0ADFB002851D00020B5
:10459000FFF7A6FDAB78A34201D00120EAE7294B43
:1045A000002B02D0002000E000BF0020FFF732FE09
:1045B0000028F2D1244C200000F07EFB0028ECD132
:1045C000002FEAD0BF06E8D1243C4046A178FFF78F
:1045D0003BFC0028E1D0002300224046A178FFF7F1
:1045E0005BFC0120C6E79AB210239A46174EAA44F4
:1045F0003100504600F0A8FC154B002BBFD06B7962
:10460000FF2BBCD0002FBAD0F219914603E001363F
:104610004E45B4D06B7932789A42F8D1504600F0CA
:1046200061FB0028F3D15346103B597900E000BFED
:10463000EDE700E000BFAAE7F8130020000000004B
:1046400008140020000000001C1400207413002037
:10465000000000009322F0B5134C85B0002120002B
:104660009200FDF7F3FF23002000802640270F4D26
:104670004D337600FF33293002950093002200234A
:10468000002103970196FF3000F0D4F94035201D3A
:1046900028340023012200210397029501960094FB
:1046A00000F0C8F905B0F0BDBC1600203C16002093
:1046B00010B5054C200000F0F3F920002538FF3834
:1046C00000F0EEF9012010BDE417002070B5084C91
:1046D000002520003130FF30257000F0F1FC200073
:1046E0000C3000F0EDFC2A23FF33E554657170BDFA
:1046F000BC160020F8B557464546DE464E46E0B5A6
:104700004B7980460F00FF2B5BD1404B99462A2303
:104710004946FF33CB5C002B53D14E79002E50D14C
:10472000BB783C780B703B793C19002B46D0982322
:104730005B004B449A460C234B449B46A51803E070
:10474000AC423BD22378E4186378052BF8D1AC4215
:1047500034D221004046FFF75DFB002831D0A3781A
:104760000136F6B2DB09012B32D0504600F0A8FC2E
:104770002A234946A278FF33CA54637922791B025F
:104780001343234A5B0594465B0D942163445A42CC
:1047900053414A4602204900525C5B008243134366
:1047A0004A46535451464046083900F0E3F9002880
:1047B00007D02378E4183B79B342C5D8E01B80B218
:1047C00000E00020F0BCBB46B246A946A046F8BDBA
:1047D000584600F075FC5A46A3780C3A5371637939
:1047E00021791B020B430A495B058C465B0D634430
:1047F00059424B41022011795B0081430B435946DA
:1048000000200839137100F081F9D2E7BC160020AE
:1048100000FEFFFFF8B52A2506001F48FF35455D5D
:104820001F008D4215D043798B4201D00020F8BD86
:104830001A4B002B04D039040020090C00E000BF03
:10484000174C3000210000F061F900281DD0012034
:10485000EDE79A235B00C35A002B0DD1114B002BBF
:1048600004D000201049BAB200E000BF30000F4968
:1048700000F080F90120DAE796235B00C15831305F
:10488000BAB2FF3000F060FBE8E73A0021003000E8
:1048900000F008F90120CAE7BC1600200000000063
:1048A000C0160020000000003C160020E417002085
:1048B00000B5030083B0002910D00020012B07D8D9
:1048C0000A78002A04D00C48C2540120012A01D0E1
:1048D00003B000BD1800FEF7D5FDF9E701236A46D5
:1048E000002001A99380FEF7CDFD0028F0D0012221
:1048F000014B1A70ECE7C04614150020037870B520
:10490000DB0704000E00DD0F002B17D103785B07D7
:1049100001D5280070BD01213000494200F07CFC27
:104920002378DB07DD0F002B0AD123785B0708D43F
:104930000422237801251343237002E00025E8E7D1
:104940000025300000F040FCE3E7C04670B50C00E5
:10495000012106004942200000F05EFC33785B072D
:10496000DD0F002B04DB200000F02EFC280070BDC2
:104970003378DB0704D40422337893433370F2E7AF
:104980000025F0E7437902791B021343C2785B05E7
:1049900092075B0D920F022A1DD0032A0CD0002033
:1049A000012A08D102394A425141124A94466144CF
:1049B00099424041C0B2704702394A1E91410E4AA5
:1049C000494211408022D20094460020614499421D
:1049D0004041C0B2EFE7022905D0002040229A42B0
:1049E0004041C0B2E7E7054A981843425841C0B277
:1049F000E1E7C046FF03000040FCFFFF00FEFFFFB1
:104A00008A1870B5914207D27F264C78052C04D0C5
:104A10000C7809198A42F8D870BD34008D782C4082
:104A200064000419ED0963550C7809198A42ECD821
:104A3000F2E7C046F0B5C64600B582B0150008AA38
:104A400040CA040017886A46928D012090460A00E9
:104A50002178024081432000114321703A000093E5
:104A600031000123083000F0F1F8002E01D0002FB2
:104A700008D10A9B012063604346638002B080BC7A
:104A8000B846F0BD26001C363000FCF749FB002379
:104A9000002D01D0330000266361A661E9E7C0461E
:104AA00001207047F8B502240B7807001C406342D0
:104AB0005C41144B64421C40134B08009C46083078
:104AC0000D001600644400F0F7F8002807D1002E0E
:104AD00005D0344203D101242B781C4201D00020A0
:104AE000F8BD38006978FFF7AFF90028F7D02B78C8
:104AF0001C42F4D10023002238006978FFF7CCF97A
:104B0000EEE7C04640FEFFFFFF010000F8B50D00D4
:104B10000835060028000C0000F0CEF8002803D06D
:104B2000012723781F4201D00020F8BD30006178B2
:104B3000FFF78AF90028F7D028006288616800F042
:104B40003DF9237805001F4000280BD0002FEBD142
:104B50000300626830006178FFF79EF90028E3D017
:104B60002800E2E7002FDFD130006178FFF780F9FD
:104B7000DAE7C046F8B5CE46474680B58A890600D2
:104B80000C000B78002A07D101251D4240D00020DF
:104B9000C0BCB946B046F8BD9B0733D42A4B40256C
:104BA000994627000837380000F0A4F88542EED86F
:104BB0000122237890461A42E9D130006178FFF74C
:104BC00043F90028E3D0380000F094F842462378F7
:104BD0001A40854231D8002AD9D14A46638802401A
:104BE0001D1C934200D9151CADB200226178002D26
:104BF00000D062682B003000FFF74EF90028C6D0C5
:104C00002800C5E7FE2380251B029946AD00C8E7B2
:104C10004978FFF719F90028B9D023781D42B6D199
:104C2000638800226178002B00D062683000FFF7B3
:104C300033F90028ABD06088AAE7002AA7D130005A
:104C40006178FFF715F9A2E7C0FF0000F0B5C6468E
:104C500000B504006846057E8020884617001E00C7
:104C60000002824226D8E068002803D00121494290
:104C700000F0D2FA2069002803D00121494200F057
:104C8000CBFA4346236073045B0CED031D43002302
:104C9000E0686381A780E5802381002801D000F0CF
:104CA00093FA2069002801D000F08EFA012080BC20
:104CB000B846F0BD0020FAE710B504894189828822
:104CC000A3B288B28C4207D31B1A9BB2101C9A4223
:104CD00000D9181C80B210BD5100091A5B189BB294
:104CE000F4E7C04603894089181A43425841C0B2CC
:104CF0007047C04610B5048941898288A3B288B242
:104D00008C4207D31B1A9BB200209A4201D9D21AB7
:104D100090B210BD5100091A5B189BB2F4E7C0466F
:104D200070B5040000690E00002803D0012149423B
:104D300000F072FA25896089A288A9B283B28542FF
:104D400032D3CD1AADB2002D28D0AA4208D291425A
:104D50002FD3891A8BB263819A4203D89B1A9BB2D4
:104D60009A42FBD9E28821685204520C5343300026
:104D7000C918FDF771FC63890125591C89B2A28805
:104D80008B420DD900215200891A89B220696181B4
:104D9000002801D000F018FA280070BD618989B29E
:104DA00052009142F2DBEFE75500ED1A4D19ADB21A
:104DB000C9E789188BB26381CEE7C046F0B5464695
:104DC0004F46D646C0B50600006989469046002881
:104DD00003D00121494200F01FFA31897289B58858
:104DE0008BB294B2914254D31F1BBFB2002F4AD052
:104DF000BD4205D2AB4251D25B199CB22F007481E7
:104E00004346B8453DD89FB2A54203D8641BA4B21F
:104E1000A542FBD9F28831685204520C9046624395
:104E20002B1B9BB2891842469F4225D953439BB204
:104E30001A0048469A46FDF70FFC434648467D1B3C
:104E400064195C4331685044A2B2FDF705FC7189D6
:104E5000B588CB199BB26A00994216D99B1A9BB2AE
:104E600030697381002801D000F0AEF93800E0BC51
:104E7000BA46B146A846F0BD48467A43FDF7ECFB7A
:104E8000E5E73B1CBFE773899BB26A009342E7DB0F
:104E9000E4E76F003F1BDF19BFB2A7E75B1B9CB2C3
:104EA000ACE7C046F8B50400C0680E00002803D087
:104EB0000121494200F0B0F9258920896189A28841
:104EC000ADB283B28FB2884229D3DB1B9BB29A4228
:104ED00009D8E779FF0906D1E068002801D000F081
:104EE00073F93800F8BD2B0095421DD39B1A9BB275
:104EF0009342FBD2E28820685204520C53433100A3
:104F0000C018FDF7A9FB6B1C9BB2A2889D4217D964
:104F1000002352009B1A9BB201272381DCE751003A
:104F2000C91B5B189BB2D2E7E28820685204520C7E
:104F300053433100C018FDF78FFB0135A288ABB297
:104F400052009342E8DBE5E7F0B54E465746DE46B1
:104F50004546E0B589460600170083B0002A67D0B1
:104F6000C068002803D00121494200F055F9338977
:104F7000F2799BB298467389B5889BB2D20940D129
:104F800098455ED26A00D31A43449BB2AB425DD2CD
:104F9000EB1A1A1C9BB2BB4200D93A1C97B27B1B7E
:104FA0009BB20193F3885B045B0C9A464346DB1982
:104FB0009BB29B464446A84503D3641BA4B2AC42B3
:104FC000FBD25346634330682D1BADB2C018BD42BF
:104FD0004BD3524649467A43FDF73EFBB3885B000C
:104FE000D84501D89B4503DB5A46D31A9BB29B4652
:104FF0005B463D003381F06800281AD000F0E4F8E9
:1050000017E0F2885204520C9246AF4220D29845E3
:105010004DD34246D21A92B26900781B80B2D2199F
:1050200001908A4233DA4346FB189BB29B46C1E7A4
:105030000025280003B0F0BCBB46B246A946A046F6
:10504000F0BD4246D31A9BB2AB42A1D30025D2E7B2
:10505000002DD0D07F1B574398465A19002392B297
:10506000B94493462F000193A4E753465D43ADB284
:105070002A004946FDF7F0FA019B2900E218534641
:105080005A43306892B24944FDF7E6FAA6E75A1946
:1050900092B29346D21B92B2904693420CD94346A9
:1050A000591A8BB29846FB189BB29B4682E769005F
:1050B000CA1A424492B2B0E7914200DD7AE7EEE7C5
:1050C00010B50400C068002803D00121494200F057
:1050D000A3F82069002803D00121494200F09CF880
:1050E0000023E06863812381002801D000F06CF880
:1050F0002069002801D000F067F8012010BDC046EB
:1051000070B50400C0680D00002803D00121494299
:1051100000F082F82069002803D00121494200F004
:105120007BF87F21E379ED011940E0682943E171C3
:10513000002801D000F048F82069002801D000F0D4
:1051400043F8012070BDC04610B583070AD00300A4
:10515000032102E001330B4205D01A78002AF9D16D
:10516000181A10BD030019680C4A0D4C8A188A439E
:1051700022420FD15968094A04338A188A432242CD
:1051800008D15968054A04338A188A432242F1D06B
:1051900000E001331A78002AFBD1E1E7FFFEFEFEB2
:1051A00080808080F8B5C04601B40248844601BCC6
:1051B000604700BF410C002001B40248844601BC96
:1051C000604700BF0103002001B40248844601BCCF
:1051D000604700BF2502002001B40248844601BC9C
:1051E000604700BF3D04002001B40248844601BC72
:1051F000604700BF190C002001B40248844601BC7E
:10520000604700BF5D0F002001B40248844601BC26
:10521000604700BFC100002001B40248844601BCC1
:10522000604700BF9901002001B40248844601BCD8
:10523000604700BF0101002001B40248844601BC60
:10524000604700BFD10C002001B40248844601BC75
:10525000604700BF810C0020711F00109D1F0010CF
:10526000812100103D260010E92100108D2400103E
:10527000A9200010B91F0010D91F0010ED1F001049
:10528000D1100010F51F00109D140010391F0010E0
:0C529000050D00103D2F0010B1020010B1
:10529C000A2A2A2A2050414E4943202A2A2A0A0047
:1052AC000A0000004E6F207370696E6C6F636B7335
:1052BC002061726520617661696C61626C650000C9
:1052CC004E6F20757365722049525173206172655F
:1052DC0020617661696C61626C6500004861726482
:1052EC007761726520616C61726D20256420616C40
:1052FC00726561647920636C61696D65640000009E
:10530C004861726420617373657274006D697373A4
:10531C00696E6720646F75626C652066756E637468
:10532C00696F6E0052656C6561736500626F6F74B6
:10533C00325F77323571303830000000322E322E29
:10534C00300000007069636F5F77000070726F6AE5
:10535C0065637431000000004D61792032352032D4
:10536C003032360055534220737464696E202F20FE
:10537C007374646F7574000052617370626572723D
:10538C0079205069000000005069636F0000000034
:10539C00426F6172642043444300000052657365A0
:1053AC0074000000556E68616E646C65642049522F
:1053BC005120307825780A0065702025303258202D
:1053CC0077617320616C72656164792061766169C3
:1053DC006C61626C6500000043616E277420636F22
:1053EC006E74696E75652078666572206F6E2069C3
:1053FC006E616374697665206570202530325800C3
:10540C0006005250D3F07542305300100600525033
:10541C00E182887F3853001006005250ABB36053C2
:10542C004853001006005250BBFF3CB650530010BE
:10543C0006005250861C03025853001006005250AE
:10544C005422A29D6453001005005250DE65F4688E
:10545C00046700100D0A000000000000A1290010D4
:10546C0000000000A5290010B1290010DD29001052
:10547C00D9290010000000000A00000000000306FB
:10548C00A6000800020002009C001400030057490B
:10549C004E55534200000000000000000000800048
:1054AC0004000100280044006500760069006300D8
:1054BC00650049006E0074006500720066006100B2
:1054CC0063006500470055004900440000004E0091
:1054DC007B00620063003700330039003800630042
:1054EC0031002D0037003300630064002D003400C0
:1054FC006300620037002D0039003800620038006C
:10550C002D00390031003300610038006600630063
:10551C00610037006200660036007D00000000006C
:10552C00050F2100011C100500DF60DDD88945C77F
:10553C004C9CD2659D9E648A9F00000306A60001C8
:10554C00000000000600525053B4F4A17053001038
:10555C00000000008453001094530010CC1F002056
:10556C009C530010A8530010090254000301008042
:10557C007D080B0002020200000904000001020277
:10558C000004052400200105240100010424020666
:10559C000524060001070581030800100904010019
:1055AC00020A000000070502024000000705820203
:1055BC004000000904020000FF0001051201100266
:1055CC00EF0201408A2E0A000001010203010000D3
:1055DC00A43500100C3700105C370010E4360010B6
:1055EC00F6360010D436001044360010F03500109A
:1055FC00E4350010C63A0010AC3A00107C380010AC
:10560C00E63A00107C380010943A0010803A0010F2
:10561C007C3800106C3A0010723900107C38001085
:10562C00523D0010443D0010383D00107C380010F5
:10563C007C380010223D0010443D00107C380010D6
:10564C007C3800107C3800107C3800107C3800103E
:10565C007C3800107C380010D83C00109E0D0020C7
:10566C009E0D0020E80D0020080E00204C0E00209E
:10567C005E0E0020940D002000000000DD420010A2
:10568C004D4300107D430010C94300106D440010C1
:10569C0055450010000000000000000055460010A9
:1056AC00B1460010CD460010F5460010392A001006
:0856BC00154800100000000079
:1056C4000C540010185400102454001030540010CE
:1056D4003C5400104854001054540010505500100D
:1056E40003000068EFF3108C72B60268002AFCD045
:1056F400BFF35F8F04229A56002A0BDB002900D0E7
:105704000A6000201B68BFF35F8F00221A608CF3CD
:1057140010887047D0221206126801201A71F1E72E
:10572400F0B5C646150000B504001E000268EFF38C
:10573400108172B61368002BFCD0BFF35F8F042373
:10574400E3562268002B2BDBBFF35F8F0020106031
:1057540081F31088D02212061278002752B29046A4
:105764009A420ED1002080BCB846F0BDBFF35F8FD3
:10577400176081F310882800310000F001FF002831
:10578400F0D12268EFF3108172B61368002BFCD0BD
:10579400BFF35F8F237922687F2BE7D9434602E06A
:1057A400D0231B061B682371BFF35F8F0023136094
:1057B40081F310880120D6E7F0B5C64600B50D0088
:1057C400040000F015FFFA2206000F000023280051
:1057D4000021920000F0ECFE36184F41002F02DA4F
:1057E4000126174F7642D0231B061B6800259846D6
:1057F4000AE0BFF35F8F156081F310883000390031
:1058040000F0BEFE002818D12268EFF3108172B6B2
:105814001368002BFCD0BFF35F8F237922687F2BA2
:10582400E7D943462371BFF35F8F0023136081F3ED
:105834001088012080BCB846F0BD0020FAE7C046BD
:10584400FFFFFF7F0268EFF3108172B61368002B2D
:10585400FCD0BFF35F8FFF2303710368BFF35F8F37
:1058640000221A6081F3108840BF704710B5084CBD
:105874002378002B0AD18023064807495B051A6860
:10588400C25004338B42FAD10123237010BDC046A9
:10589400E11F0020081900100001001010B5014B91
:1058A400984710BD09190020064B5A6802609A688F
:1058B4004260DA6882601A69C2605A6902619B694F
:1058C40043617047000002400268064B5A60426818
:1058D4009A608268DA60C2681A6102695A61426930
:1058E4009A61704700000240034B1A68C0239B0072
:1058F4009343024A136070470C8001400C900140AE
:10590400054B1A6880239B005340C0229200134029
:10591400024A13607047C0460C8001400C9001405D
:105924000023F0B5DE4657464E4645469A46E0B556
:1059340089B001900E00988A45491B8B1400984742
:10594400534681464349988A1B8B9847534642499C
:105954000500988A1B8B98478046FFF787FF02A8AB
:10596400FFF7A2FFC847A847FFF7CAFF251E22D0AA
:105974000823C0219C460220490562468B6A1A40CE
:1059840018423FD0631B002D2FD1002A11D1002CC7
:1059940011D0C0235B059B4602239A4606339946E1
:1059A4005B464A4657469B6A1A401F4242D0002A29
:1059B400F6D0002C30D1FFF797FFC047FFF76EFFFA
:1059C40002A8FFF781FF09B0F0BCBB46B246A94666
:1059D400A046F0BD002C2FD1C0225205926A9146F8
:1059E40008224F463A40BF072DD50D2B1BD9002A5C
:1059F400F0D1C0225205926A914608224F463A409D
:105A0400BF07F2D4002A04D12B002343002BB4D1C6
:105A1400D1E72B00002CF9D00B6E013C337023002E
:105A240001362B43F2E7019F013D3B7801370B66BA
:105A34000197E7E70025E5E7C0235B051B6E013C02
:105A44003370013699E72B00002ADFD1DCE7C0462A
:105A54004946000045580000464300000022154B0B
:105A640010B59A60DA601A615A619A61DA611A6251
:105A74005A629A62DA621A635A639A63DA631A643C
:105A84005A649A64DA641A655A659A65DA651A661C
:105A94005A669A66DA661A675A679A67DA67F0325C
:105AA40092000021044800F08BFD044B044A1A6064
:105AB40010BDC04600001050B41A00207C1E002007
:105AC40080011050F0B54E464546DE465746E0B5D7
