:020000041000EA
:1000000000B5324B212058609868022188439860DF
:10001000D860186158612E4B002199600221596106
:100020000121F02299502B49196001219960352056
:1000300000F044F80222904214D00621196600F024
:1000400034F8196E01211966002018661A6600F04E
:100050002CF8196E196E196E052000F02FF8012189
:100060000842F9D1002199601B49196000215960AB
:100070001A491B48016001219960EB211966A021F2
:10008000196600F012F800219960164914480160C1
:100090000121996001BC002800D000471248134993
:1000A000086003C880F30888084703B5996A0420EC
:1000B0000142FBD001200142F8D103BD02B5186610
:1000C0001866FFF7F2FF186E186E02BD00000240BE
:1000D000000000180000070000035F00212200005C
:1000E000F4000018222000A00001001008ED00E03C
:1000F00000000000000000000000000074B24E7A12
:1001000000200420F7010010CB010010CD010010E9
:10011000C9010010C9010010C9010010C901001077
:10012000C9010010C9010010C9010010CF01001061
:10013000C9010010C9010010D1010010D301001045
:10014000C1010010C1010010C1010010C101001067
:10015000C1010010C1010010C1010010C101001057
:10016000C1010010C1010010C1010010C101001047
:10017000C1010010C1010010C1010010C101001037
:10018000C1010010C1010010C1010010C101001027
:10019000C1010010C1010010C1010010C101001017
:1001A000C1010010C1010010C1010010C101001007
:1001B000C1010010C1010010C1010010C1010010F7
:1001C000EFF30580103800BE00BE00BE00BE00BECA
:1001D00000BE00BEF2EB887150580010705800103D
:1001E0003802001090A31AE71E481F49086006C88D
:1001F00081F3088810471D480068002801D019487D
:10020000F3E70DA40ECC002902D000F012F8F9E7B4
:100210001749184A002000E001C19142FCD116495B
:100220008847164988471649884700BEFDE701C937
:1002300001C29A42FBD3704770580010C0000020E2
:10024000A0100020506800100000042000000420CE
:10025000506800100010042000100420000000006E
:10026000704700000000000008ED00E0000000D032
:10027000A01000204021002045270010C5080010D4
:100280003D270010F8B5C0460448054B10B5834221
:1002900003D0044B002B00D0984710BDA0100020C5
:1002A000A01000200000000006480749091A8B1022
:1002B000C90FC91810B5491003D0044B002B00D04A
:1002C000984710BDA0100020A010002000000000E2
:1002D00010B5074C2378002B09D1FFF7D5FF054B4C
:1002E000002B02D0044800E000BF0123237010BDA2
:1002F000301300200000000028540010054B10B5FA
:10030000002B03D00449054800E000BFFFF7CCFFF5
:1003100010BDC04600000000341300202854001017
:10032000F8B5DE4657464E464546E0B5D02680270E
:100330003606BF011C4BB7611A689B46FA23DB04E3
:1003400053401B0C194A1B041360194B92469946E3
:100350001A68FA230025DB005340164C164A1B048A
:100360001B0C290020001360904601F0BBFA5B468D
:100370001A68FA239B04534052461B0C1B0413605B
:100380004B461A68FA239B00534042461B041B0C41
:1003900029002000136001F0A5FA7761F0BCBB468C
:1003A000B246A946A046F8BD2000054020100540F1
:1003B00034000540C0C62D003410054070B56A4CAD
:1003C0006A4D206802F02EF8694901F0E2FF6949A0
:1003D00001F0F3FF674901F0D9FF02F073F82E68CE
:1003E00080B273081F2E00D8A1E003221A40083201
:1003F00093009B18604A9B0094466344F60700D420
:10040000A0E05E4A000419686E68484080214901F6
:100410008C46024063441A60606802F003F8544955
:1004200001F0B7FF534901F0C8FF524901F0AEFF98
:1004300002F048F8730880B21F2E00D891E0032222
:100440001A40083293009B184B4A9B009446634421
:10045000F60700D483E0494A00041968AE684840B2
:10046000802149018C46024063441A60A06801F073
:10047000D9FF3F4901F08DFF3E4901F09EFF3D4904
:1004800001F084FF02F01EF8730880B21F2E63D9BA
:1004900003221A40083293009B18374A9B00944667
:1004A0006344F60756D5354A00041968ED6848409C
:1004B000802149018C46024063441A60E06801F0E3
:1004C000B1FF2B4901F065FF2A4901F076FF294968
:1004D00001F05CFF01F0F6FF6B0880B21F2D35D8EC
:1004E00007221A4093009B18234A9B0094466344BA
:1004F000ED0729D5214A0004196841400A408021AE
:1005000049018C4663441A601D4B1A68FA239B0408
:1005100053401B0C1B4A1B0413601B4B1A68FA2325
:100520009B0053401B04194A1B0C136070BD07222B
:100530001A4093009B18104A9B0094466344F607A8
:1005400000D55EE7124A5EE7114AD5E703221A405A
:100550000832C7E70E4AA8E707221A409BE70C4A71
:100560007BE707221A406DE7A00F0020B00F0020A4
:100570000000344300007A440C0005400000FFFFF7
:10058000200005402010054034000540341005408F
:10059000FFFF0000F8B5BE4BDE469C464E46454682
:1005A000574604004068E0B5604401F03BFFB9499C
:1005B00001F0EFFE2368061CB748C01A01F032FFB5
:1005C000B44901F0E6FE311C041C301C01F0F5FEBC
:1005D000211C051C201C01F0F0FE011C281C01F050
:1005E000D5FE01F07BFFFE218905051C01F014FFFB
:1005F000002801D0FE25AD05311C201C01F086FF2E
:10060000A649041C281C01F0D8FEA54B051C18683F
:10061000984601F007FFA34901F0CFFEA24901F07F
:10062000B8FE211C01F0AFFE01F05EFF9F4FA04E0F
:100630003B6883463068994601F0F4FE291C8246E7
:10064000584601F0BAFE011C504601F09FFE01F031
:100650000BFF01F0E7FE944901F09BFE954901F084
:10066000ACFE944901F092FE01F02CFF4B464A4645
:1006700080B25B081F2A00D8F4E003221A40083237
:1006800093009B188C4A9B0094464A466344D207C9
:1006900000D4FAE0894A00041968484080214901E1
:1006A0008C46024063441A604346586801F0BAFE23
:1006B0007C4901F082FE7C4901F06BFE211C01F0B7
:1006C00062FE01F011FF7B6883467068994601F075
:1006D000A9FE59468246281C01F06FFE011C5046B7
:1006E00001F054FE01F0C0FE01F09CFE6E4901F0E5
:1006F00050FE704901F061FE6E4901F047FE01F0C5
:10070000E1FE4B464A4680B25B081F2A00D8B9E09A
:1007100003221A40083293009B18674A9B009446B4
:100720004A466344D20700D4AAE0644A0004196828
:100730004840802149018C46024063441A60434688
:10074000986801F06FFE574901F037FE564901F0F5
:1007500020FE211C01F017FE01F0C6FEBB68834697
:10076000B068994601F05EFE59468246281C01F0A9
:1007700024FE011C504601F009FE01F075FE01F057
:1007800051FE494901F005FE4A4901F016FE49496A
:1007900001F0FCFD01F096FE4B464A4680B25B0834
:1007A0001F2A6AD903221A40083293009B18424A32
:1007B0009B0094464A466344D2075CD53F4A0004F6
:1007C00019684840802149018C46024063441A6000
:1007D0004346D86801F026FE324901F0EEFD324969
:1007E00001F0D7FD211C01F0CEFD01F07DFE804619
:1007F000F06801F017FE4146061C281C01F0DDFDE3
:10080000011C301C01F0C2FD01F02EFE01F00AFEB9
:10081000254901F0BEFD274901F0CFFD254901F032
:10082000B5FD01F04FFEFC6880B263081F2C1ED896
:1008300007221A4093009B181F4A9B00944663446A
:10084000E40712D51D4A0004196841400A4080217E
:1008500049018C4663441A60F0BCBB46B246A946C7
:10086000A046F8BD07221A400AE7154AECE7032222
:100870001A400832DEE7124AA2E707221A4094E73C
:100880000F4A54E707221A4045E70D4A04E7C046DD
:1008900024FAFFFF0000FA43DC0500000000B44228
:1008A000C00F0020DB0F494000003443B00F002090
:1008B000A00F002000007A440C0005400000FFFF5C
:1008C000FFFF0000F0B5D64646464F46D0248025AF
:1008D000C0B580268EB0240610206D0200F082F98B
:1008E000B6010D20656200F07DF91120666200F00E
:1008F00079F980239B026362636166616561984652
:1009000002F020F80221092000F052F9022108200B
:1009100000F04EF9E1215548490201F0D3F80421D5
:10092000002000F045F90421012000F041F90421E4
:10093000022000F03DF90421052000F039F90421DE
:10094000032000F035F90421042000F031F985205E
:1009500000220121464B474E00011A609A60DA607E
:100960001E61586019605A61DA611A625E629861AC
:1009700059619A621A635A639E63D86299623E4BC8
:100980001A68FA239B0053401B043C4A1B0C13605B
:100990003B4B1A68FA239B0453401B0C394A1B0437
:1009A0001360FFF7BDFCFFF709FD374B9A46374B45
:1009B0009946684600F070F8002838D0344B049A05
:1009C0009A423DDD6846FFF7E5FD2D4A029B12681D
:1009D0001B045A402B49120C12040A60264A1B0CB5
:1009E000126853401B04254A1B0C13604346636185
:1009F00053461B78002B2CD04B461E685F6801F0D5
:100A000013F8801BB941002903DCD2D1214B984255
:100A1000CFD963682B4227D1656101F005F84B46B9
:100A200018605960684600F037F80028C6D1FFF713
:100A3000C5FC4346A36180239B01A5616361B8E7C0
:100A4000FFF7BCFC4346A36180239B0165616361A2
:100A5000AFE700F0E9FF4B4606000F0052461E606C
:100A60005F6001231370CAE7A561D6E700800340E9
:100A700000000540204E00003400054034100540C1
:100A8000200005402010054035210020A010002046
:100A90006C0700004FC3000030B510210400434A2A
:100AA00089B093691942FCD113680020DBB2202B76
:100AB00001D009B030BD10213C4A93691942FCD1E4
:100AC00013680020DBB2402BF3D11E2568461021AD
:100AD000364A6D4493691942FCD1136803700130A2
:100AE0008542F7D16B466A465B7812781B02134346
:100AF00023606B466A46DB7892781B02134363607F
:100B00006B466A465B7912791B021343A3606B46FE
:100B10006A46DB7992791B021343E3606B466A46AF
:100B20005B7A127A1B02134323616B466A46DB7AB7
:100B3000927A1B02134363616B466A465B7B127BAE
:100B40001B021343A3616B466A46DB7B927B1B024D
:100B50001343E3616B466A465B7C127C1B021343C2
:100B600023626B466A46DB7C927C1B021343636202
:100B70006B466A465B7D127D1B021343A3626B4684
:100B80006A46DB7D927D1B021343E3626B466A4635
:100B90005B7E127E1B02134323636B466A46DB7E39
:100BA000927E1B0213430120636382E700800340AF
:100BB000094A83009A1810B51468402254408032C4
:100BC0002240064CC000A44663441A60044B9C4675
:100BD0006044416010BDC04604C0014004D00140E3
:100BE000004001400123D0228340120693629361AA
:100BF000094A83009A1811684022514080320A4005
:100C00000649C0008C4663441A60054B9C46052388
:100C1000604443607047C04604C0014004D00140B6
:100C2000004001408023DB051868000F7047C04674
:100C30000FB400B5084883B001F0D4FE049B002B2C
:100C400007D005A91800019101F05EFD034801F0ED
:100C5000C9FE012001F070FD285400103854001026
:100C600070B5EFF3108C72B60D4D2B68002BFCD0D5
:100C7000BFF35F8F0724CB08C618C05C01230C406C
:100C8000A3401C000440034207D118433070BFF357
:100C90005F8F2C608CF3108870BD1000FFF7C8FFC9
:100CA0002C0100D0F8B54746CE46884680B5EFF314
:100CB000108C72B6214D2C68002CFCD0BFF35F8FD6
:100CC0009A422CD8D4080727055D0619012417403D
:100CD000BC402C421FD007210127894609E0D408D7
:100CE000055D06194C4639001440A1400C0029420C
:100CF00011D001329342F2D201204042BFF35F8F04
:100D000000220E4B1A608CF3108800280FDBC0BC49
:100D1000B946B046F8BD254310003570EEE7BFF385
:100D20005F8F00232B608CF31088012040424346E4
:100D3000002BECD00898FFF77BFFC0462C0100D0B9
:100D4000044A1078431CDBB2172B00D91023137010
:100D50007047C046D00F002010B5064B064C82B03D
:100D60000100009318221F232000FFF79BFF02B011
:100D700010BDC0463C540010801B00200021044BD5
:100D8000044ABFF35F8F02C39342FAD17047C04653
:100D9000000100D0800100D0054B064A1360064ACE
:100DA000136053609360D360136153619361704724
:100DB0008080808000E400E004E400E01F2318400D
:100DC0001E3B8340002905D0C021044A49005350EE
:100DD00013607047802201498B50FAE700E100E080
:100DE00001228240034B1B6813405A1E9341D8B224
:100DF0007047C04600E100E001238340014A1360D0
:100E00007047C04600E200E0064B10309B6880004F
:100E1000C358054A00209B1A2F229A424041C0B273
:100E20007047C04600ED00E0D40F002070B50D0003
:100E3000EFF3108672B60F4A1368002BFCD0BFF395
:100E40005F8F0D4B10309B6884001B590B4A9342F7
:100E500003D09D4201D001F0BDF8074B9B681D51A6
:100E6000BFF35F8FBFF35F8F0022024B1A6086F3E0
:100E7000108870BD240100D000ED00E0C101001019
:100E8000F0B557464E46DE464546E0B585B006000D
:100E900000911700EFF3108B72B66A4A1368002BAB
:100EA000FCD0BFF35F8F0025674B5D579A46002D3E
:100EB00000DAA9E06B00654C01935B199B00984632
:100EC000A146C1444B4652469B7910361370604B85
:100ED000B6009B6899590B1B2F2B33D95D4B994258
:100EE00000D0ACE0019B42469C465B4B6544AD00A4
:100EF00063535A4B0232A218043B9B1A1B05584AF3
:100F00005B0D651913436B80564B0121AB80FF23AA
:100F1000AB71009BEF71AB604B460B4319004C4B20
:100F20009B689951BFF35F8FBFF35F8F0022454BE2
:100F30001A608BF3108805B0F0BCBB46B246A946D8
:100F4000A046F0BD01200A008243D3798C46BB4203
:100F500031D84546130044491B1B5B415943090DD9
:100F60003D4B63533D4B02356519043B5B1B1B0531
:100F70003B4D5B0D2B43AA464D466B800425AC468A
:100F80005546E044131F44441B1B1B055B0D1D43CA
:100F90004B46997100999D8099604946DF71334BAA
:100FA00001431360BBE75800C01880002018C179C6
:100FB000B9422FD902000623D356002BF3DA02934D
:100FC0002B4B61460393131D9A4604235B429C46B8
:100FD000E14450464B461B1A1B055B0D9C46204BBB
:100FE000957198466346404603439380019B5A1986
:100FF0009200039BA418A380029B1C4AA371009B30
:101000002260E771A3608AE700F0E4FF0025534601
:101010005D574FE7908802934005131D9A460315CC
:1010200061469C464046D444634604302018181A52
:10103000E0230005400D1B0218430390C5E700F0B4
:10104000C9FF4FE7240100D03A210020D40F00202F
:1010500000ED00E0C101001000A1FFFF041000201E
:1010600000E0FFFF01BDFFFFAAAA00000148804782
:1010700001BD000070B501240443EFF30581EFF3D7
:10108000108C72B6214A1368002BFCD0BFF35F8F1F
:101090001F4B05001F4AED1A6D416A43120D1E4D8C
:1010A0008900AE6852B27658A6421CD00621595625
:1010B00091421CD012215956914222D01E215956DC
:1010C000914220D02A2159560324914210D0134B2B
:1010D00019781A708171BFF35F8F00220B4B1A6071
:1010E0008CF3108870BDAB680D4C5C50EFE70024AA
:1010F0006100091989005B18FF21997109499980DC
:10110000E5E70124F4E70224F2E7C046240100D019
:10111000D40F0020AAAA000000ED00E03A21002030
:10112000C101001001BDFFFF10B5084B084C82B093
:1011300001000093002205232000FFF7B3FD0028E3
:1011400001DB1F23181A02B010BDC046585400100E
:101150003E210020024B9C4661448900016070479B
:101160004000003470B5114C114DAC420FD2FF2637
:101170002368002B0CD0FFF7E3FD01002000FFF7F0
:10118000E9FFA680BFF35F8F0834AC42F0D370BD97
:10119000FFF7D6FD01002000FFF7DCFF2671BFF34B
:1011A0005F8F0834AC42E3D3F1E7C04698100020CB
:1011B000A010002010B50400FFF7C2FD01002000C0
:1011C000FFF7C8FFFF232371BFF35F8F10BDC04639
:1011D00010B504000120FFF7BFFD034BC3189B00AF
:1011E0002360BFF35F8F10BD40000034034B9C466B
:1011F000614489000160BFF35F8F70474000003495
:101200000A4B1968EFF3108072B60A68002AFCD006
:10121000BFF35F8F1B68BFF35F8F00221A6080F3FC
:10122000108840BF002000217047C04614210020D4
:10123000F0B5DE4657464E464546E0B583B0EFF37F
:10124000058203231340B54A9900525800919046F5
:1012500001229A409346B24B1A60B24B01935B460F
:10126000B1484363434608229B5E9946002B3ADA15
:1012700043469B881BB2002B00DB9DE043469B79D5
:10128000002B00D0E1E0434608241C5F002C20DB4B
:1012900043465A6963001B19DB00D3189D68DC685C
:1012A0006B1C00D103E1A048009984466144826A26
:1012B0000B69AE1A9B1A9E4213D35A46036A1A420E
:1012C0000FD0994800F0A8FB8C4202DCC7D18542C0
:1012D000C5D940BF03B0F0BCBB46B246A946A04644
:1012E000F0BD0D61EDE7424652695B0092464B440A
:1012F000DB009A4453469E68DF6800F08DFB8F4206
:10130000B6DC00D1F8E0002F00DAD9E052465346AF
:1013100054691B69019A934200D1CCE04146524680
:101320000820085E528800042100104398470400FA
:101330000D0023002B4300D1C2E0002D00DBDFE0D5
:1013400030003900001BA94153469860D960002243
:101350009A5E002A00DA8BE743465D6953009C18C9
:10136000E4002C19A768E4688C4200DD80E702D114
:10137000874200D97CE74646328108360DE08C4230
:1013800000D1C6E01E000023F25E002A0ADB5300F3
:101390009C18E4002C19A768E4689B18DB00EB1884
:1013A0008C42ECDD53461A804B46338043469B8883
:1013B0001BB2002B00DA61E743461A69EFF3108194
:1013C00072B61368002BFCD0BFF35F8F43469E8834
:1013D000012342465B42938036B21369BFF35F8FAD
:1013E00000221A6081F31088002E00DA46E7434697
:1013F0005D69083342469C467700BF19FF00EF192C
:10140000BB68604698460823D15E9246FC68002976
:1014100007DA0EE0A24246D018000023C15E002980
:1014200006DB4B005B18DB00EB18DA68A242F1DD4B
:10143000524606800023FE5E3980002EDCDA90469C
:1014400043469B79002B00D11DE700234246937150
:10145000434646460821595E08364B1C00D138E702
:1014600047468946556902E006004B1C18D04B00E0
:101470005B18DB00E8180A008C46E95E43881BB263
:10148000002BF1DA01235B42DC178360C4604A451C
:1014900003D031803B8903803A81E1464B1CE6D181
:1014A000B8464C46F2E69A684245B5D9C0E7631C97
:1014B00000D0F8E605E7200023699847002825D1E9
:1014C000534642461B8813811269EFF3108372B6AC
:1014D00011680029FCD0BFF35F8F42465146528805
:1014E0000A804246494651801269BFF35F8F00214E
:1014F000116083F31088BBE6864200D803E7B7E6A5
:10150000094800F089FA001969411DE765682468F7
:101510000FE7874200D835E744E7C046F81F0020B0
:101520003C700540311200100040054070B52E4C53
:101530002569002D04D00A212C48FFF70BFE70BD51
:101540002B4E0321300000F05DFAE660FFF7F8FB58
:10155000284B03229C46D02322701B061B680121C6
:101560006370254B6044A3600F238000206102203C
:10157000638063694942A18019800231198647312D
:101580001D83585218315A5275325C3999521832AB
:101590000131995218320131995218320131995260
:1015A000083518329D5202311832995218320131E1
:1015B0009952183201319952183201319952183228
:1015C000013199521832013199520C4B0C49DC60AF
:1015D00001303562FFF72AFC01210320FFF7EEFB03
:1015E000084B1D60A7E7C0461C10002014210020F6
:1015F0000040054040000034FFFF1000F81F0020AD
:101600003112001038600540004870471C1000205F
:10161000F8B51F0008AB1B7804001600002B08D19A
:1016200000F002FA32003B00121A8B41002B00DA64
:1016300053E02269EFF3108072B61368002BFCD0E0
:10164000BFF35F8F0223E15E63694A005218D20044
:101650009B18002937DB1A8862802269BFF35F8FED
:101660000025156080F31088069A9E60DF601A617D
:10167000079A5A615A8801325204520C101C002AEF
:101680001FD082B25880080410432669EFF31087F8
:1016900072B63268002AFCD0BFF35F8FA2881A802E
:1016A000A1802369BFF35F8F00221A6087F310883F
:1016B0000B4923788C4601329A40E36863441A60F0
:1016C000F8BD0120DDE72369BFF35F8F00221A60B8
:1016D00080F3108801204042F2E70020F0E7C04686
:1016E0003C20000070B501000469EFF3108C72B665
:1016F00020680028FCD0BFF35F8F02200D5E4C698C
:1017000068004019C0002418002D37DB208848806D
:101710000869BFF35F8F002606608CF31088E360D2
:1017200063880498013320615B0405985B0CA26018
:1017300060611A1C002B1FD093B2280462801843EA
:101740000A69EFF3108C72B61368002BFCD0BFF35C
:101750005F8F8B8823808D800B69BFF35F8F0022A2
:101760001A608CF310880B7801329A40CB680849D4
:101770008C4663441A6070BD0122DDE70B69BFF33C
:101780005F8F00221A608CF3108801204042F2E73C
:101790003C20000010B543890A1493421ADD53001F
:1017A0009B184269DB00D3180469EFF3108C72B602
:1017B0002268002AFCD0BFF35F8F5A88090494B2D4
:1017C000090C8A4208D00369BFF35F8F00221A60B8
:1017D0008CF31088002010BD8022120214435C801C
:1017E000012302698371BFF35F8F002111608CF3C5
:1017F0001088044902788C469340C26801206244F4
:101800001360E8E73C20000040787047F0B5040022
:101810000D0006267642F717C64636196F4100B509
:1018200082B08F4214D811D000F0FEF832003B0095
:10183000121A8B41002B17DC002B47D02000290007
:1018400000F030F902B080BCB846F0BD8642EBD95A
:101850000022002316001F0000F0E6F832003B00D3
:10186000121A8B41002BE7DD00F0DEF832003B005E
:10187000121A8B41002B0ADB00230193154B320017
:10188000009315483B00FFF72DFF0028D6DB00230F
:101890009C46B046114A124E736A9F4204D8B16A00
:1018A0008845CBD99F42C9D11168EFF3108072B639
:1018B0000B68002BFCD0BFF35F8F1368BFF35F8F03
:1018C0006146196080F3108820BFE5E7002AB5D093
:1018D000CAE7C046011200101C100020142100208D
:1018E0000040054070B504000D0000F09DF8802315
:1018F000001969411B06994202D301200249404266
:10190000FFF784FF70BDC046FFFFFF7FF0B5D646EE
:101910004F464646C0B504000D0082B0EFF3058780
:101920008946002F0ED0344900204B6AAB4203D3C6
:101930008A6A0130A24226D302B0E0BCBA46B14660
:10194000A846F0BD2D4B9846DB689A464346504664
:101950001E7800F061F80B00514602000436B60014
:10196000715820008E1A2900801A99418F4211DC8B
:101970000ED020BF204A0020536A4B45DCD3926A28
:101980000130A242D8D25B1B5A1E9341D8B2D3E792
:101990008642EED900F048F822002B00121A8B4143
:1019A000002B1ADB00230193154B220000934046C5
:1019B0002B00FFF797FE011E0FDD0F4B5A6A4A45B9
:1019C00017D39B6AA34212D34046FFF7E3FE0A4AAD
:1019D0000020536A4B45AFD3D1E7074A0020536A32
:1019E0004B45A9D3926A0120A242A5D2CBE74A4532
:1019F000EAD120BFE8E7C046004005401C100020A7
:101A00000112001010B5024A0248FFF729F910BD73
:101A100074540010841B00200300416A0A00986A75
:101A2000596A8A42FAD17047034B596A0A00986A88
:101A3000596A9142FAD170470040054070B50400E0
:101A40000D00174A536A1900966A536A8B42FAD1FD
:101A50003000190024184D41AB4216D813D0104A5B
:101A60002B00526A954203D90D494A6A9A42FCD327
:101A70009A4207D10A4A02E0516A994202D1916A18
:101A8000A142F9D370BDA642E9D9054B5B6A1C009F
:101A90005A1CEFD0012301246442E5175B42E3E7BF
:101AA00000400540064A536A9942FCD807D1044BCE
:101AB00002E05A6A914202D19A6A8242F9D370478F
:101AC00000400540F8B5040006200D0000F078F94C
:101AD000002844D0374B3849E3185A1E93418022DE
:101AE000120494465B429B0D344A9B056344136089
:101AF000334A136018000A689043FBD12D4B314ADA
:101B0000E31859424B4180215B004900062099525D
:101B100000F056F92900C00000F086FB0130C3092F
:101B20001ED1402701226262A362266BF30722D4F2
:101B3000E36A254B0620E51800232B60266300F09E
:101B40003FF93900800000F06FFB7023E26A5A40D1
:101B50000E3313402B601D4B23630323A364F8BD96
:101B60001B4A93421ED900231A4A1B4F6262A3628A
:101B7000266BF307DCD5194B144AE3181A60656A23
:101B8000A36A0620AD01ED1800F01AF9144900F01F
:101B90004BFBAD020100280000F046FB0021FFF7DF
:101BA0004DFFC5E74006800E9F011A003F18030055
:101BB000B9E7C0460080FCBF08C0004000E000401C
:101BC00000F00040202100202C1000000103000044
:101BD000FEFF0000FFFF0000C0FF3F0030300000AC
:101BE0004E0E0000F8B5DE464E4657464546E0B577
:101BF0008B4605000A991800160000F015FB0A9B99
:101C00006C001F02324B64199C46A4006444636854
:101C100081469F4200D967602B1FDBB29846012B9B
:101C200030D9C02380229B01E31812011A60294B8E
:101C3000AD0059599A4600291BD17301E02622684C
:101C400053401E40802342465B01E3181E60012A78
:101C500030D9802380229B01E31812011A60534679
:101C60004A4667605A51F0BCBB46B246A946A046F8
:101C7000F8BD586900F0D8FA013043001B18033B47
:101C8000FDD2DAE75B46012BCBD1C02303229B01B7
:101C9000E3181A60023AA3681A42FCD07301E026E6
:101CA0002268AD0053401E4080230A4A5B019246E1
:101CB000E3181E605A462168514003220A401A6008
:101CC00001225B469A40A3681A42FCD0C1E7C04695
:101CD00000800040881B0020F0B546464F46D6469F
:101CE000C0B51F00344B44009C462418A400644433
:101CF000636888461600FF2B02D880235B00636070
:101D0000031FDBB29A46012B30D9C02380229B01EE
:101D1000E31812011A60294B850059599946002988
:101D20001BD17301E026226853401E408023524697
:101D30005B01E3181E60012A30D9802380229B01B9
:101D4000E31812011A6080235B0063604B465F5109
:101D5000E0BCBA46B146A846F0BD586900F064FA46
:101D6000013043001B18033BFDD2DAE74346012B49
:101D7000CBD1C02303229B01E3181A60023AA36867
:101D80001A42FCD07301E0262268850053401E40B1
:101D900080230A4A5B019146E3181E60424621688F
:101DA000514003220A401A60012342469340A26830
:101DB0001342FCD0C1E7C04600800040881B0020D1
:101DC000014B8000C0587047881B0020F8B5040004
:101DD00021481E0017000D0000F026FA010038000F
:101DE00000F022FA069B36041B031E432368002BD7
:101DF00020DB1A4B1A49E3185A1E934180229201A4
:101E000094465B421B0B174A1B0363441360164A3C
:101E100013601F000A689743FBD1144B2560E2183A
:101E20002123A06013602368002BFCDA0823E660FE
:101E30001360F8BD3F2322681340AB42D9D1A36899
:101E40001B051B0D8342D4D1EE22E368D20213405E
:101E5000B342CED1EDE7C046001BB7000040FDBF46
:101E600008C0004000E0004000F0004004300000E6
:101E700010B580241C4BE4051C6000281AD00123F7
:101E80001A4C18431A4BDC611A4C44401C625962CC
:101E900098628021144BC9051960174817490860DA
:101EA000E021C9041960002A07D18022144B1206D0
:101EB0001A6010BD0E4BD861EBE753019B1A9B00D3
:101EC0009A18802312015B049A4209D213000D492B
:101ED0000B60074B5A608022094BD2051A60E8E775
:101EE000094B1A00F3E7C04600B00540D3C007B065
:101EF000008005402D3FF84FFCFF01000820014005
:101F000000A00540E81F0020FFFFFF008023024AD9
:101F10009B000B43D362704700800540142310B52B
:101F20000100188804331B88984710BD162310B58C
:101F30000100188802331B88984710BDF8B5474642
:101F4000CE4680B50F1E19D01423994604330400E1
:101F50000025012698464B461888434621681B8871
:101F6000984701C4431E9841013540420640AF42A4
:101F7000F1D13000C0BCB946B046F8BD0126F8E743
:101F8000142370B50400188804331B880D0005491C
:101F9000984703000020002C01DB0130A0402900FD
:101FA0009847C04655420000AA23064A1B01136009
:101FB0008D235B00D3600449044B19605368002BE8
:101FC000FCDA70470040024000B0FA0000600240B6
:101FD0007047C04610B50148FEF72AFE985400101D
:101FE00070B5074D074EB54209D20024013E761B5D
:101FF000B60808CD984723000134B342F9D170BD2B
:10200000E05300101C540010054B064A06491A60A4
:10201000064A074B1A6010000B689843FBD17047C3
:1020200000E00040BFCDFBFE08C00040FE7F3C004A
:1020300000F00040044BDB6C002B03D18022034BEB
:10204000D2021A607047C046000011504C20115057
:10205000044A054B1A60054A1368DB018033FBD143
:102060007047C046FFFFFF0100F0004008C000407D
:102070004022034B9A675A671A67DA667047C04670
:1020800000F0014010B5FEF779FE10BDF8B5274904
:10209000274C284D641AA6103200302E00D9302269
:1020A0002800920000F022FBBC2C3BD830202F23CC
:1020B0002C196407204A801BE40F9B1B052B16D9A3
:1020C0003700002C02D0B300771CEA50001B3319F4
:1020D0009B004108EB18C900C9181A605A60083300
:1020E0009942FAD1012303421CD09843C619B30088
:1020F000EA50731C2F2E15D09B00EA50B31C2E2ED5
:1021000010D09B00EA50F31C2D2E0BD09B00EA5000
:10211000331D2C2E06D09B00EA50731D2B2E01D0B0
:102120009B00EA50054B9D60F8BDC04600010010C1
:10213000C001001000000020C101001000ED00E00F
:10214000002310B5294C82B0A367FFF72DFF0122B1
:10215000274B1A60636C012BFCD10322254B1A60BC
:10216000224A936B012BFCD1013300930121224AB7
:1021700022480433FFF72AFE052301210093204A59
:102180002048FFF723FE0022022104201E4BFFF708
:10219000A3FD0022012105201C4BFFF79DFD00221D
:1021A000002107201A4BFFF797FD0022002108208D
:1021B000174BFFF791FD8023DB00009300220021E5
:1021C0000920134BFFF70EFD0022104B00210620C3
:1021D000FFF782FD0420FFF7F3FD0E4900F024F81D
:1021E00001000020FFF792FE02B010BD0080004009
:1021F0003CB0004030B00040002F685900800240E1
:10220000008C864700C00240001BB700405973078E
:10221000006CDC0240420F0001480421014B1847CA
:10222000401000203D1F0010114A936F9B0813D2ED
:1022300010665166002905D0FFE7FFE7FFE7516F01
:10224000106F704704B5002801D00020C04303F090
:102250008FF8002104BDC046F0B5146E556E576F5F
:10226000166FFFF7E5FF1466556657671667F0BDF2
:10227000000000D010B50148FEF7DAFCA4540010AD
:10228000132370B51D78012D19D014DD1D48FFF7FB
:102290004DFE06001C48FFF749FE1C4C8022310011
:1022A000200000F023FA022D06D01948FFF736FE71
:1022B000184B186070BD154C174BA364F5E7174B0E
:1022C000124C23606360A360E36023616361A361D8
:1022D000E36123626362A362E36223636363A363D4
:1022E000E36323646364A364E36423656365A365B4
:1022F000E36523666366A366E36623676367A36794
:10230000E367D9E753440000534600003012002031
:102310004C330000102000202123001075220010F3
:1023200007B5604601880A0A0230DF2AFAD1C9B22D
:10233000820804D3028840880004104300E000684B
:10234000014A5050039007BD3012002051434343CF
:10235000C9188C46110C83B24B4310B4040C614372
:1023600092B280B2504362431C041B0C001910BC93
:1023700059411304120CC0185141614470470000C8
:102380004840414048400E4B5B6818470C4B1B6867
:1023900018470C4A936F9B0802D2094BDB68184719
:1023A000F0B5146E556E576F166FFFF7F6FF054ABE
:1023B0001466556657671667F0BD014B9B68184752
:1023C00014200020000000D007B54840414048409C
:1023D00001E0C04607B54200120E03D0FF2A03D128
:1023E000420218D8C00DC0054A00120E03D0FF2AC1
:1023F00003D14A020FD8C90DC9050122414005D4B5
:10240000414001D5814207BD884207BD01434918BB
:1024100001D0C043001807BD00B5FFF7D5FF8041CC
:1024200000BD0000C10FC90700D54042002817D0E9
:10243000F44603B40B4B1B68984706BC81409E389A
:102440004042803107D20B0607D04900490AC00537
:102450001043084360470130F8E7490A8902F5E76D
:10246000704700001020002041000A0E80231B0648
:102470007E2A0BDD9E3A0BDAC11740024008184352
:102480005242D04049000131484370470020704714
:10249000C00FC01801387047C0420DD300B54000CE
:1024A0004008002100F00EF8002801D4404200BD91
:1024B0008020000600BD0000014BDB6918470000CA
:1024C00014200020014B5B6A1847000014200020F4
:1024D000014B1B6B1847000014200020014B9B6927
:1024E00018470000142000204100090E862902DA56
:1024F000044BDB6B1847044900B500F0E3F802BC5D
:102500008E46F5E714200020DB0FC940014B9B6D80
:10251000184700001420002010B50148FEF788FB82
:10252000EC540010132310B510481C78FFF7FEFC84
:102530000100012C0AD003DD80220D4800F0D6F8FE
:102540000C48FFF7EBFC0C4B186010BD084C5422F4
:10255000200000F0CBF82200084980322368002BCD
:1025600000D1216004349442F8D1E9E753460000D9
:10257000142000204C3300001020002019250010EA
:10258000F0B546464F46D646C0B5FF26C50DCB0D25
:10259000354088461700041C1E40002A01D0002345
:1025A0001360FF2D5ED0002E5CD0002D5DD0201C6E
:1025B000FF2E52D03300013BB246AB424DDC8022AD
:1025C00012049146E10F6402640A144342464E46E7
:1025D0005202520A1643B146AB4248D000294FD0AE
:1025E000534600216442ED1A002D55DD4B46012073
:1025F000D9114042FFF718FE1D2300219C462A00F6
:102600000C2D00DD0C226646631294404343B61A3B
:10261000334126004C46914001335B105C4359180E
:10262000341BAD1A002DEADCA14533DC4B46E41A1D
:102630004C4544DBE41A023163004B4534DC31D0B5
:102640004346002B00DA4942002F00D03960962122
:1026500053462000C91AFFF73BFFE0BCBA46B1461B
:10266000A846F0BDFF20C005F7E70020F5E7B4421B
:10267000F3DD730000291BD1AA46E41A0131DFE71C
:102680005346ED1A002DB1DC0021B4420CDB0121D0
:10269000A41BD1E7002CCFDA4B46E4180DD54C44EF
:1026A0000239C9E7CB07CBD54B460131E41AC7E75E
:1026B0000121AA461C1B4942C2E70139BCE701318E
:1026C000BAE7C04610B50022FFF75AFF10BDC0465A
:1026D00001480421014B1847501000203D1F0010F5
:1026E000014B1B681847000050100020014B5B682D
:1026F000184700005010002010B5002800D110BD70
:1027000000F024F9FBE7C04610B5094A030014683D
:1027100084B0002C08D0012200910648524203A93F
:10272000A047012004B010BD00F05CF90020F9E7DB
:10273000E41F0020F926001000BEFDE710B5FFF7EA
:10274000FBFFC04670B5FFF74BFC074D074EB54287
:1027500009D20024013E761BB60808CD9847230015
:102760000134B342F9D170BD1C540010285400103C
:10277000030010B5080011001B68984710BDC04643
:10278000F0B5C64600B5437D07000D001600002BCE
:1027900038D0002A2EDD00216A1E90466A5C037D37
:1027A0004C1C00200A2A0CD0A64216D043461B5DC2
:1027B00021000D3B5A4253416A5CDBB24C1C0A2A91
:1027C000F2D1002BF0D1884217DB022110483B6880
:1027D0009847A64207D02000E8E7864203DD311A79
:1027E0003B6828189847AD19013D2B780D3B5A429C
:1027F00053413B7580BCB846F0BD091A3B682818A8
:102800009847E2E70368110028009847F2E7C046BE
:10281000EC550010F0B5DE4657464E464546E0B54D
:1028200085B017001C0006000D00FFF7FDF800231F
:10283000314A12184B41802109068B4202D30122F2
:102840002E4B52422E4908008A4602F0B1FD0190FB
:102850006B1C03D1300002F0DDFC0500002C26D0FB
:10286000284B9846284B1C68002C15D0002F21D1EE
:10287000264F02E02469002C0ED02368002BF9D0EB
:102880003B68002B01D09C42F4D120002A0031008B
:10289000C0472469002CF0D1019B002B28D12800CF
:1028A00005B0F0BCBB46B246A946A046F0BD184BE9
:1028B0009846D7E7154B994602ABDF1D0A239B4686
:1028C00002E02469002CE7D02368002BF9D04B46A6
:1028D0001B68002B01D0A342F3D12A003100200055
:1028E000C0475B460122390020003B70C047E8E743
:1028F000504602F035FDD2E740420F00FFFFFF7F58
:102900009810002081270010D81B0020E01B002019
:10291000712700100A4A1368002B05D10CE01A0039
:102920001B691032002B07D09842F8D1002902D140
:1029300003691360016170470029FCD01060FAE759
:10294000D81B002010B500F08DFA10BDF0B5CE46B2
:10295000474680B583B06B460600DD1D2870FFF743
:1029600063F800231A4A12184B41802109068B4252
:1029700002D30122174B524217490800884602F041
:1029800017FD164B81461C68002C14D0144F02E032
:102990002469002C0FD02368002BF9D03B68002B52
:1029A00001D09C42F4D1200001222900FFF7E8FE6B
:1029B0002469002CEFD14B46002B05D1300003B029
:1029C000C0BCB946B046F0BD404602F0C9FCF5E7D0
:1029D00040420F00FFFFFF7F98100020D81B00200F
:1029E000E01B002070B5040002F014FC012301007C
:1029F000050001222000FFF70DFF084B1C68002C8A
:102A000006D06368002B05D098472469002CF8D1C4
:102A1000280070BD2469002CF3D1F9E7D81B0020F1
:102A20007047C0460022014B1A7070473B210020BE
:102A30004B790020FF2B0BD18B79002B08D1CB7960
:102A4000012B05D1082A03D9024B8A7809301A7064
:102A50007047C0463B2100200120704710B5012976
:102A600001D0012010BD13495379107909781B0258
:102A7000034300209942F5D15378012B08D0022B53
:102A8000F0D1002064220021FFF7F2F90120E9E7EC
:102A9000D37891781B021943DB0507D54A0A100049
:102AA00001231A407E331940FFF76AFA01204A0ACF
:102AB0004042F5E73B21002000487047B85600101F
:102AC00070B5050014000120012909D153780020B8
:102AD000012B05D1637912791B021343072B00D018
:102AE00070BD21002800024A9F3301F05FFAF7E72A
:102AF000105600100123037000487047F055001075
:102B00004B780A781B0213438A7810B512041A43D3
:102B1000CB781B0613439622D200934200D010BDFF
:102B20000022012011004042FFF72AFA024B1860F0
:102B3000024B19607047C046781B00207C1B0020A8
:102B400010B5024B1878FEF757F910BD3C21002054
:102B5000154B70B51A68002A22D0EFF3108172B6B7
:102B600010680028FCD0BFF35F8F00200F4A596027
:102B700010701B68BFF35F8F186081F3108800240A
:102B800000250B4E3078FEF72BF9002804D10024E5
:102B900000252900200070BD3078FEF72DF9F8E7F8
:102BA000FA240025A400ECE7F01F00203D210020BE
:102BB0003C21002070B5040000200E0001F016FB3F
:102BC000002836D0002001F027FB002831D0FEF786
:102BD0002BFF0023184A12184B41802109068B4213
:102BE00016D2164D280002F0E3FB002821D0002069
:102BF00001F0FCFA00280FD101200021404200F032
:102C000009FD03246442280002F0AAFB200070BDE5
:102C100001220B4B5242E4E7002001F0FDFA0028AC
:102C2000EAD021003200002001F000FB041EEAD1AE
:102C3000E7E703246442E9E740420F00182100203F
:102C4000FFFFFF7F10B5FEF7EFFE00230E4A1218BC
:102C50004B41802109068B4202D301220B4B524289
:102C60000B4C200002F0A4FB00280CD00120002116
:102C7000404200F0CFFC002001F022FB0028F5D1FB
:102C8000200002F06DFB10BD40420F00FFFFFF7FF0
:102C900018210020F8B5DE46574680B505000C0027
:102CA000FEF7C2FE0023374A12184B418021090665
:102CB0008B4202D30122344B5242344908008A46E7
:102CC00002F076FB002803D1C0BCBB46B246F8BD7B
:102CD000002001F08BFA00284AD00026002C43DDAA
:102CE0002B4B9B4614E0A919002001F023FB0700A1
:102CF00001200021404200F08DFC002001F0E0FAAC
:102D0000FEF792FE224BF61918605960B4422BDD93
:102D1000002001F02FFBA71B0200B84200DD3A00A3
:102D2000002AE0D101200021404200F073FC002085
:102D300001F0C6FA002001F059FA002814D0002052
:102D400001F018FB0028E1D1FEF76EFE5B460F0094
:102D50001A685B68002184460E4812184B419F4256
:102D600002D8D3D19445D1D9504602F0F9FAABE755
:102D700000200021064B18605960504602F0F0FA1E
:102D8000A2E7C04640420F00FFFFFF7F182100204E
:102D90002812002020A1070030B52B4C85B000215F
:102DA000200002F0F5FA00281CD1284B1A68002AEE
:102DB00016D0EFF3108172B610680028FCD0BFF374
:102DC0005F8F01242248596002781B68D2B20470D8
:102DD000BFF35F8F0020186081F31088002A17D09E
:102DE00005B030BD01200021404200F013FC00205E
:102DF00001F012FA0500200002F0B2FA002DEFD027
:102E0000144B1B68002BEBD0134A10689847E7E778
:102E1000FEF7FAFB0400FEF707FEFA2200239200F9
:102E200012184B41802109068B4202D301220B4B21
:102E30005242012102910021019109492000009193
:102E4000FEF7E6FBCCE7C04618210020F01F00206B
:102E50003D210020781B00207C1B0020FFFFFF7F0E
:102E6000512B0010D02310B51B0684B01C68FEF750
:102E7000CBFBFEF7C9FCA04202D0002004B010BD7D
:102E80002A4B002100201B7801F070FD28480368C0
:102E9000002B47D00120FEF747F9FF23254C264998
:102EA00020701840FDF7C2FF20780121FDF786FF52
:102EB0000520FDF7A9FF002826D1082200211F4880
:102EC000FFF70EFCFEF7A0FB0400FEF7ADFDFA22B3
:102ED0000023920012184B41802109068B4202D335
:102EE0000122174B52420121029100210191154903
:102EF00020000091FEF78CFB0028BEDB1248012168
:102F0000FFF708FD0120B9E70120FDF725FF0B4B76
:102F100001001800FEF76AF9002205200B49FDF7B1
:102F2000AFFFEBE7FEF746F9B4E7C0466C58001078
:102F3000182100203C210020992D0010F01F0020B6
:102F4000FFFFFF7F512B001060100020412B00106D
:102F50000048704754570010004870470057001051
:102F600010B5040017480378002B20D0002C06D1A0
:102F7000154B16484380063BFF3B038010BD052CD4
:102F800019D8134BA400E05812490123013804E07A
:102F900001330A800231142B0FD0C25C002AF7D112
:102FA000C022DBB25B00920008481343E5E7112121
:102FB00000F01AF8DAE70020E0E7CA2303489B0094
:102FC000DBE7C0462421002009040000B01B0020DC
:102FD000E8560010B21B002010B5024800F0D8F8E7
:102FE00010BDC0460820002030B54B1E012900D17D
:102FF000A7E0664A11780D092C0030349F2900D9CA
:10300000A2E00470012B00D1BEE00F211478214012
:103010000C003034092900D998E04470022B00D10B
:10302000B2E054782509290030319F2C00D990E076
:103030008170032B00D1A7E00F2121400C00303418
:10304000092900D987E0C470042B00D19CE0947852
:103050002509290030319F2C00D97FE00171052B13
:1030600000D191E00F2121400C003034092900D912
:1030700076E04471062B00D186E0D478250929003A
:1030800030319F2C00D96EE08171072B00D17BE09D
:103090000F2121400C003034092966D8C471082B57
:1030A00000D171E014792509290030319F2C5FD8B7
:1030B0000172092B68D00F2121400C0030340929FE
:1030C00058D844720A2B5FD0547925092900303131
:1030D0009F2C52D881720B2B56D00F2121400C000F
:1030E000303409294BD8C4720C2B4DD09479250962
:1030F000290030319F2C00D9073101730D2B43D0AB
:103100000F2121400C003034092901D937310C003E
:1031100044730E2B38D0D1790C09220030329F290C
:1031200000D9073282730F2B2ED00F220A401100D4
:103130003731092A01D830321100C173102B23D046
:1031400010300023037030BD07345AE737310C00CC
:1031500063E707316CE737310C0074E707317DE72F
:1031600037310C0085E707318EE737310C0095E7E2
:1031700007319DE737310C00A3E70731AAE7373164
:103180000C00C4720C2BB1D1C018DAE70820002063
:1031900010B588B004000D2200216846FFF7A0FAA0
:1031A0000D22002104A8FFF79BFA4B236A466846CC
:1031B000137004A90D2202F0CBF81521082220007B
:1031C0006944FFF793FA08B010BDC046F8B500F0A7
:1031D00043F90C23194DFF22AB6705201849FDF771
:1031E0004FFE184C402200212000FFF779FA4027BB
:1031F000002301262121144A66702783A2601360F0
:1032000063545F31618445396354104A10496360E7
:10321000E2602787A1620B606362E26202F088F8D5
:1032200080239B052E64EB6490230A4A0120EA5018
:103230008022094B5202DA64F8BDC04600001150EA
:10324000E1040020E41B0020840010500001105015
:103250008000105010D001000020115010B5012145
:103260000520FDF7ABFD10BD10B50022002102487E
:1032700000F012F910BDC046041C0020044B197068
:10328000002904D080219023024A8902D15070473E
:1032900037210020002011500B785B0602D14B78BB
:1032A000052B00D070478A78014B1A60FAE7C046B8
:1032B00000001150F0B5C646C87800B58007830FEE
:1032C0001800012B60D08F780A794B797F21394023
:1032D000FC091B024E001343334D32195201AA1848
:1032E000977001276740577000275B055B0DD7700B
:1032F0001383D076B846CA00012C32D02B4FBC467F
:103300008F016244BC46AC446746BA6047461760CA
:10331000002932D0264AC900904662464144516095
:103320003F223F339343022837D0224937190A6896
:103330007F01D3180B602049EF19FA608B422ED819
:1033400036197601AD19EB7E1C499B064A401343A2
:103350008022120613436A681360012080BCB846BD
:10336000F0BD174FBC468F016244BC46AC44674673
:10337000BA6247461760002908D1002364012C195E
:103380006360104BE360E8E70020E7E70B4AC90001
:103390009046624641445162C2E75B00C5E7FEF7D2
:1033A00019FEFA68CCE7C046E41B002084001050E8
:1033B00004001050EC1F0020FF0F105000001050B0
:1033C000800010500001105010B501F0B1FF10BD89
:1033D00010B57F200C0020404000E40911000019C6
:1033E0001A00034B4001C01800F056F8012010BD30
:1033F000E41B00207F23180010B50840CA090B42C7
:1034000003D107497D3B9B1A8B66400080188022C0
:10341000044B40010021C018120101F0D9FF10BD7A
:1034200000201150E41B00207F22130010B50B4038
:103430000A4200D110BDC9095B005B1804485B015A
:10344000C018002300220349C37001F0C1FFF1E757
:10345000E41B0020FFF7FFFF80220A4B520410B547
:103460001A60094B09491A6010000B689843FBD198
:103470008022002152010648FFF732F90922054B4C
:103480005A6710BD00E0004000F0004008C0004056
:103490000000105000001150002310B5C38201330A
:1034A000828283760161040001F06AFF002804D063
:1034B00080219023074A8902D150200001F040FF6B
:1034C000002802D00123237710BD200001F078FFEF
:1034D000FAE7C046002011507047C0467047C0460A
:1034E00000207047002070477047C0467047C046B4
:1034F0007047C0467047C046024B5878431E9841FB
:10350000C0B2704790160020024B18784007C00FD9
:103510007047C04690160020F0B5D6464F46464646
:10352000C0B5314B07009A461B780E00FF2B01D027
:10353000012044E0002941D0002154222B48FFF70C
:10354000CFF800222A4C2B4B20001A70FDF732FED8
:10355000294B1C60294C2000143CFDF739FE20004B
:1035600001F00CFE264B274D1C60274B002B2BD067
:103570002800FFF7BFFA254B2A7818602449002459
:10358000894622490023884610E043461B686201B1
:103590009B18002B12D05B68002B0FD098472A781D
:1035A0000134E4B2511C2300A1420FDBA242ECD84B
:1035B0009B1A5B014B445B68002BEFD10020E0BC01
:1035C000BA46B146A846F0BD2A78D7E7534631003F
:1035D00038001F70FFF7FAFD0028EFD03800FFF722
:1035E0003DFE0120EBE7C04694100020901600201D
:1035F0008816002038210020E41600208C100020BE
:10360000E816002036210020F52A0010E0140020E2
:1036100010580010F0B5DE4657464E464546E0B518
:10362000C84B91B002931B78FF2B00D13EE1C64BF3
:10363000C64E9B465F46C64B0DAC0193C54B0093EF
:1036400035686A69EFF3108172B61368002BFCD0FD
:10365000BFF35F8FA9612800210001F0BDFB6A69FB
:10366000AB69BFF35F8F0021116083F310880028DE
:1036700000D11BE16378082BE2D89B00FB589F46E2
:103680006368002BDCD0A0689847D9E77F222179B6
:10369000AF4D0A405300EB189846C8098044404695
:1036A0000123303005799D430571057903339D432E
:1036B0000571002A00D100E14346A74A1B7D12781C
:1036C000934200D3EFE0A54A5B011568ED18002D89
:1036D00000D1EBE0A36862792078AD69A847AFE735
:1036E0009F4A1378002B00D1E0E01378013BDBB256
:1036F00013701378002BA3D10122954D01212B7853
:10370000042013432B703423EA5C8A43EA54EA5CB6
:103710008243EA540133EA5C8A43EA54EA5C824316
:10372000EA54237800209B4600F0A0FC6022237915
:103730001A40602A00D1EFE0402A00D1F5E0DB0614
:10374000DB0E012B00D113E1022B00D1C7E0002BCF
:1037500000D0E1E0202A00D11CE2002A00D0DBE00A
:103760006379092B00D9D7E07E4A9B00D3589F4646
:10377000774D2B78DB0700D462E7FFF7BBFE5FE7EE
:10378000019BDB78DB0700D45AE76068FFF7A6FEF1
:1037900056E76F4D2B78DB0700D451E728780007F8
:1037A000C00FFFF7A5FE4BE723786A4999468B4681
:1037B000694B6A4998468A4639001A784746002379
:1037C000B04600254E46894610E053461B686A0104
:1037D0009B18002B00D176E0DB68300098473A78E0
:1037E0000135EDB2511C2B008D4244DC9542ECD3E7
:1037F0009B1A5B015B44EFE7237858499946564B87
:103800008A4698463100BB464E461A78002500236A
:10381000474689460FE053461B686A019B18002BF8
:1038200055D0DB68300098473A780135EDB2511C2D
:103830002B008D4207DC9542EDD39B1A009A5B0169
:1038400094466344EDE7019D542200212800FEF7D1
:1038500047FF1022FF214448FEF742FF28002022A4
:10386000FF2114304E465F46FEF73AFF00F0F4FBAE
:10387000FFF73CFEE4E6364D542200212800FEF717
:103880002FFF1022FF21281DFEF72AFF28002022EB
:10389000FF21143046464F46FEF722FF00F0DCFBC6
:1038A0002379AB70CCE6501C984213DA11B0F0BC0F
:1038B000BB46B246A946A046F0BDA368627920780F
:1038C00000F0E8FBBCE646464F46214DE6E74E4693
:1038D0005F46CBE71F4D9B1A5B015D19FAE670232B
:1038E000217A0B4218D1C80982460F330B405B0086
:1038F00098461948EB1853441B7D0078994683423B
:1039000066D216485B01006881469944002A00D1BE
:103910005FE14B46002B68D120780021FFF76AFD5C
:1039200080212078FFF766FD8AE6104800F09EFBB4
:10393000012158460EAAFFF7C3F8002800D07FE601
:10394000EAE7C0469410002068570010E8160020EF
:10395000901600201058001036210020E01400209E
:10396000382100208C57001094160020C12A001026
:10397000237A0F2BD0D8CF4AEB181B791578AB429E
:103980003ED3691C9942C7DB5D1BCB4B6D01ED1823
:10399000686900F06BFB012158466B690EAA9847D5
:1039A000002800D04CE66022150023791D401A4201
:1039B000B2D163790A3B012BAED800F057FB637993
:1039C0000A2B00D199E158460EA900F0D9FA37E642
:1039D000431C4B4500DAF7E04B461B1A5B01994646
:1039E000B5488144002A00D1F3E04B46586900F005
:1039F0003DFB4B46012158465B690EAA98479CE760
:103A0000AE4A5B011568ED18002DC1D184E7A3799A
:103A100099466B789945D6D06B78002B00D033E16E
:103A20004B466B70002B00D12BE148460138C0B2E9
:103A3000FFF792FA002800D17EE143780793022B2A
:103A400000D079E10122C179B1468B1149111340AF
:103A50000A40302112015B0113432A78A8468A43A9
:103A600013432B7009239A4682445646BA46C378BC
:103A700082781B021343C31805938E4B04938E4B1D
:103A800008938E4B09938E4B0A93059BB34200D843
:103A900055E1737801220B2B03D13378F278F618B5
:103AA0007378042B00D044E1059B00279B1B9BB23D
:103AB0000693049B0B921D78002303931BE0099A45
:103AC0007B011568ED18002D00D132E13100584618
:103AD0002B69069A98478446082803D9069A824299
:103AE00000D313E1049B01371D78FFB26B1C0397D1
:103AF0009F4200DD1DE1BD42E1D8039B5D1B089B99
:103B00006D019C466544E1E76B780CAA02321370A4
:103B1000584601230EA900F049FA91E5E3881A0AF4
:103B2000D8B20F2A00D9F7E666499300CB589F46D2
:103B30000EA800F0A1FA5846A179FFF795FB0222E2
:103B40002B7813432B707BE5E388012B00D0E3E651
:103B500008222B78584693430EA92B7000F010FAD8
:103B60006EE5022029780CAB9A1C8B068908DB0FC6
:103B700001400B431380584602230EA900F016FAA9
:103B80005EE5E388012B00D0C6E608222B781343BC
:103B90002B7018E7237A0F2B00D9BDE6EB181D799F
:103BA000444B1B789D4228D2444B6D011B685D1924
:103BB000002D00D1B0E6686900F058FA012158469E
:103BC0006B690EAA9847B8E6002A00D0A4E6002345
:103BD000994662790220130003928343012B15D08A
:103BE000002A00D098E62B004344534430331B791D
:103BF0000CAA9B07DB0F0232BCE75A1CAA4200DA70
:103C00008AE6ED1A2C4B6D01ED18D4E7E388002B02
:103C100012D1029B1878039B012B23D0FFF7EAFBFC
:103C200043460221EB18534430331A790A430121E9
:103C30001A711A790A431A714B46002B00D1FFE41E
:103C4000586900F013FA4B4601215B690EAA5846E9
:103C50009847002000F00AFA3523EB5CDB0700D51B
:103C6000EEE4B0E6FFF7E0FB43460221EB185344D5
:103C700030331A798A431A711A7903998A431A716F
:103C8000DAE7FFF733FC9EE600215846FFF7F6FA25
:103C90005846FFF799FBAB78074903930491054B0E
:103CA000064998461A780591002329001D008A4686
:103CB0001BE0C0463621002010580010E014002000
:103CC000A4160020B4570010059B6A011B689B18BE
:103CD000002B4DD0DB685846984743461A7801358B
:103CE000EDB2511C2B008D422EDC9542ECD39B1A79
:103CF000049A5B0194466344ECE70CAB9A1C58466B
:103D000001230EA9157000F051F999E40B9A012ACC
:103D10004FD0002A3CD00023B07804E00133DBB25E
:103D20000F71934234D2C118C9B241440D79FF2DAD
:103D3000F4D04E464546574600236B70ECE54E46A0
:103D40005746FFF7D1FB3EE6554654220021280096
:103D5000FEF7C6FC1022FF21281DFEF7C1FC28003B
:103D60002022FF211430FEF7BBFC039BAB7057E60B
:103D70005546FAE7FEF7A0FE021E00D1CCE5D37847
:103D800091781B020B4358460EA900F00FF9D4E5B9
:103D900065463B002A0031000A9800F08DFEAC46D3
:103DA000049B039A1B7866440133934200DB6CE664
:103DB000BFE7174B29699942ADD1079AABE7FFF7E7
:103DC0008FFB021E00D1A7E5584613780EA900F01C
:103DD000EDF8B2E52189FFF7C3F8021EF4D19BE5A7
:103DE000022A0FD0FFF77EFB021EC8D194E5FFF731
:103DF000AFF8021E00D18FE5122358460EA900F03D
:103E0000D5F89AE5FFF7A8F8021EB8D184E5C046B8
:103E100079440010F8B557464E46DE4645460C003C
:103E2000E0B516001F00002A3CD01F4B00259A4623
:103E3000702399461D4B9B4617E05B4620009978FE
:103E400000F0FCFD00281FD021004046FFF732FAA9
:103E5000002819D0A378DA09012A1CD00A9A013562
:103E600013702378E418B5421CDA6378052B0BD164
:103E7000E3789B079B0FBB4206D153464A461B780B
:103E80009846A3781A42D8D00020F0BCBB46B24670
:103E9000A946A046F8BD0B9A013513702378E418A3
:103EA000B542E2DB0120F0E79410002090160020DC
:103EB000702270B5094B0C001D788B781A4201D026
:103EC000002070BD064B2000997800F0B7FD002857
:103ED000F6D021002800FFF7EDF9F2E7941000205A
:103EE000901600200B007F2010B51840DB093433FA
:103EF0004000044AC018044B1168C01800F05AFD75
:103F000010BDC046E4160020901600200B007F2054
:103F100010B51840DB0934334000044AC018044B84
:103F20001168C01800F06EFD10BDC046E4160020F8
:103F30009016002070B57F240F480C4064000419CF
:103F4000CD09641930342079C00701D5002070BD37
:103F5000012625790948354300782571FFF738FA9D
:103F60000028F4D10122237993432371237903326A
:103F700093432371EAE7C046901600209410002076
:103F800070B5094C0600082220000D00FEF7AEFBBC
:103F900000238021E360A3602B7830009943002246
:103FA0000023FFF7C7FF70BD70160020F8B5CE469E
:103FB00047469046264E80B58146082230000D00C7
:103FC0001F00FEF793FB4346B3600023F381EC79B7
:103FD000AB7924021C43231CBC4200D93B1C9FB27A
:103FE000B381002C0ED0002F18D04346002B2CD0CC
:103FF0003B1C402F1BD89FB233787F2B1CD800214D
:10400000144A0FE080212B78002299434846002370
:10401000FFF790FFC0BCB946B046F8BD7F23002231
:10402000317899433B004846FFF784FFF2E740238D
:104030009FB233787F2BE2D9064C3A0041462000EC
:10404000FEF754FB80212200ECE70020E2E7C046A7
:10405000701600203016002010B5142200210248EE
:10406000FEF73EFB10BDC04670160020014B1861E4
:104070007047C0467016002010B5054C010008229C
:104080002000FEF733FB0023A360E36010BDC046B1
:104090007016002070B5384C1D0023780600DA0930
:1040A000C9098A4210D00020002D00D070BD210027
:1040B0003000FFF7F1F82369002B03D02200032121
:1040C000300098470120F1E7A0687F2B05D8002831
:1040D00034D02A002949FEF709FBE289A168521968
:1040E000E38892B24919E281A160934214D03F2D36
:1040F00012D9A389981A051C80B240282AD82078A2
:10410000ADB27F2828D800219A4232D01B4A2B001A
:104110003000FFF70FFFC9E72369002B05D022000D
:1041200002213000984700280AD0802123780022FD
:10413000994330000023FFF7FDFEB7E70020B5E705
:1041400000213000FFF756F930008021FFF752F9C7
:104150000120ABE74025D2E79A4207D0074C2A005E
:104160002000FEF7C3FA80212200D0E78021002240
:10417000CDE70022CBE7C0467016002030160020A5
:1041800070B50500FFF7B8F9002800D170BDFFF742
:10419000BBF90028FAD1C8236B43124CE618F1781A
:1041A0000029F3D010331C19200000F0FFFD3F2838
:1041B000ECD90020F178FFF795FE0028E6D020002A
:1041C00000F0F4FD3F2808D9074BEA01D218F17836
:1041D00040230020FFF7AEFED8E7F1780020FFF77C
:1041E00095FED3E768150020E414002010B5040004
:1041F000FFF782F9002801D1002010BDFFF784F9F4
:104200000028F9D1C8226243024B01309B181B7968
:104210001840F2E768150020C82310B54343024850
:10422000181800F0A5FD10BD78150020F0B5C824C1
:10423000C646802344431F4F1034050000B53C1987
:104240005B029A4200D31C4A200092B200F012FE98
:104250008046FFF751F9002803D1404680BCB8469C
:10426000F0BDFFF751F90028F7D1C8266E43BE19FB
:10427000F378002BF1D0200000F098FD3F28ECD916
:104280000020F178FFF72EFE0028E6D0200000F095
:104290008DFD3F2808D9094BEA01D218F178402357
:1042A0000020FFF747FED8E7F1780020FFF72EFE49
:1042B000D3E7C04668150020FFFF0000E41400208B
:1042C000F8B50600FFF718F9002801D10020F8BD65
:1042D000FFF71AF90028F9D1C82474432500134FB9
:1042E0002435ED19280000F043FD0028EED03F19D9
:1042F0000020B978FFF7F6FD0028E7D00C4BF40159
:10430000E41821002800402200F0B4FDB978051E11
:1043100008D0030022000020FFF70CFE0028D5D0B3
:104320002800D4E70020FFF7F1FDCFE76815002053
:104330002415002070B5C82444430C4B0500E41834
:1043400080235B029A4200D3094A200092B200F017
:1043500059FE0600200000F00BFD3F2801D8300078
:1043600070BD2800FFF7ACFFF9E7C0468C150020B0
:10437000FFFF0000C82310B543430248181800F09F
:1043800015FD10BD8C150020F0B50025184C83B02C
:10439000C82200212000FEF7A3F9164B21001D7052
:1043A000FF236371E1235B02A36020000823402206
:1043B000A37338310095073B103000F0A3FC2700B1
:1043C0000123210020002600402278310093B837D5
:1043D000243000F097FCC0363800FCF7EBFE3000CC
:1043E000FCF7E8FEE56127622663656303B0F0BD74
:1043F00068150020641500200B4B196B00290AD0AA
:104400001A6A002A0DD000221A621A63DA610022A9
:104410005A63012070471A6A002AFAD0D9611962DA
:10442000F7E71A63F3E7C0466815002070B50F4C34
:10443000052200212000FEF753F90D4D2B78DA07F5
:1044400007D50C4C9B070CD50121200000F0B6FECF
:1044500070BD2000103000F091FE2B78054C9B07BA
:10446000F2D4200000F08AFEEEE7C0466815002076
:10447000641500208C150020F0B54B79060083B040
:10448000022B02D18B79022B03D00025280003B028
:10449000F0BD214FBB78002BF7D18B7809253B70FD
:1044A0000C780C196378242B0BD1082A02D80FE062
:1044B000AA420DD32378E4185D196378ADB2242B9A
:1044C000F6D0052B08D0042B02D163790A2B11D02A
:1044D0000020FFF755FED9E721003000FFF7E8FC88
:1044E0000028D2D0A3787B7023785D19E418637814
:1044F000ADB2E8E7094B277801930133009302221C
:1045000002233000E119FFF785FC0028BDD00E35ED
:10451000ED19ADB2DCE7C046681500206A15002031
:10452000F8B5602314001278050013400020202BFA
:1045300007D1304A6379277916781B023B439E42A4
:1045400000D0F8BD6378222B1AD007D8202B34D0A6
:10455000212BF6D101293ED00120F2E7232BF0D107
:10456000012940D00329F7D1234B002BF4D0E17867
:10457000A37809020020194300E000BF0120E0E712
:10458000012930D00329E7D101252E00A378E47852
:10459000023924021C431471264024321000714059
:1045A00000F00CFE154B002BD6D062080020310025
:1045B0002A4000E000BF0120C3E701290BD00329F6
:1045C000CAD10F4B002BC7D0083200201100FEF7D4
:1045D00097FA0120B5E7072321002800094AFFF7D1
:1045E000E5FC0120ADE721002800FFF7C9FC012010
:1045F000A7E7C0466815002000000000000000008A
:10460000012B001070150020F0B54F464646D646E7
:10461000364DC0B5EA781F0080460C00AB788A4260
:104620003BD08B4210D00020E0BCBA46B146A84631
:10463000F0BD2F4B002B04D02E4800F0AFFB00281C
:1046400051D00020FFF79CFDAB78A34201D00120A0
:10465000EAE7294B002B02D0002000E000BF002039
:10466000FFF72EFE0028F2D1244C200000F080FB42
:104670000028ECD1002FEAD0BF06E8D1243C404608
:10468000A178FFF72FFC0028E1D00023002240464C
:10469000A178FFF74FFC0120C6E710239A46184E79
:1046A000AA4431005046BAB200F0ACFC154B002BC6
:1046B000BFD06B79FF2BBCD0002FBAD0F219914636
:1046C00003E00136B145B4D06B7932789A42F8D123
:1046D000504600F063FB0028F3D15346103B597954
:1046E00000E000BFEDE700E000BFAAE7681500208A
:1046F0000000000078150020000000008C1500204C
:10470000E4140020000000009322F0B5134C85B0A3
:10471000002120009200FDF7E3FF23002000802607
:1047200040270F4D4D337600FF332930029500931B
:1047300000220023002103970196FF3000F0D6F9F4
:104740004035201D283400230122002103970295C3
:104750000196009400F0CAF905B0F0BD2C180020B5
:10476000AC17002010B5054C200000F0F5F9200032
:104770002538FF3800F0F0F9012010BD5419002051
:1047800070B5084C002520003130FF30257000F056
:10479000F5FC20000C3000F0F1FC2A23FF33E55437
:1047A000657170BD2C180020F8B557464546DE46A9
:1047B0004E46E0B54B7980460F00FF2B27D1424B88
:1047C0000C7899462A234946FF33CB5C002B1ED137
:1047D0004E79002E1BD1BB783C190B703B79002B16
:1047E00012D098235B004B449A460C234B449B46C3
:1047F000A5186378052B05D110E02378E4186378B9
:10480000052B0BD0A542F8D8E01B80B200E00020B9
:10481000F0BCBB46B246A946A046F8BDA542F3D9B6
:1048200021004046FFF744FB0028F0D0A378013672
:10483000F6B2DB09012B29D0504600F09FFC2A2359
:104840004946A278FF33CA54637922791B02134385
:104850001E4A5B0594465B0D942163445A425341C2
:104860004A4602204900525C5B00824313434A4699
:10487000535451464046083900F0D6F90028C6D0B6
:104880002378E4183B79B342B3D8BDE7584600F02B
:1048900075FC5A46A3780C3A5371637921791B024F
:1048A0000B430A495B058C465B0D634459424B41FF
:1048B000022011795B0081430B43594600200839DF
:1048C000137100F07FF9DBE72C18002000FEFFFFDA
:1048D00070B505002A201F4CFF30205C1E00637954
:1048E000884203D000208B421DD070BD9A235B000C
:1048F000E35A002B0DD1184B002B04D00020174990
:10490000B2B200E000BF2800154900F08DF9012087
:10491000EBE72000962331305B00E158B2B2FF3064
:1049200000F070FBE7E70F4B002B04D031040020B0
:10493000090C00E000BF0C4C2800210000F042F9F7
:104940000028E4D132002100280000F007F90120FE
:10495000CBE7C0462C18002000000000AC17002058
:1049600054190020000000003018002000B503009A
:1049700083B0002910D00020012B07D80A78002A24
:1049800004D00B48C2540120012A01D003B000BD5D
:104990001800FEF7C1FDF9E7012301A900200B80F3
:1049A000FEF7BAFD0028F1D00122014B1A70EDE7A5
:1049B00084160020037870B5DB0704000E00DD0FBD
:1049C000002B17D103785B0701D5280070BD0121AA
:1049D0003000494200F0E4FC2378DB07DD0F002BB8
:1049E0000AD123785B0708D40422237801251343D6
:1049F000237002E00025E8E70025300000F0B0FC5D
:104A0000E3E7C04670B50C000121060049422000D2
:104A100000F0C6FC33785B07DD0F002B04DB2000C1
:104A200000F09EFC280070BD3378DB0704D404221C
:104A3000337893433370F2E70025F0E74379027946
:104A40001B021343C2785B0592075B0D920F022A8B
:104A50001DD0032A0CD00020012A08D102394A4275
:104A60005141124A9446614499424041C0B2704754
:104A700002394A1E91410E4A494211408022D20019
:104A800094460020614499424041C0B2EFE70229B8
:104A900005D0002040229A424041C0B2E7E7054AD3
:104AA000981843425841C0B2E1E7C046FF030000F6
:104AB00040FCFFFF00FEFFFF8A1870B5914207D24D
:104AC0007F264C78052C04D00C7809198A42F8D836
:104AD00070BD34008D782C4064000419ED096355D5
:104AE0000C7809198A42ECD8F2E7C046F0B5C64600
:104AF00000B582B0150008AA40CA040017880BAAA6
:104B00001288012090460A0021780240814320004B
:104B1000114321703A00009331000123083000F066
:104B2000F1F8002E01D0002F08D10A9B012063600C
:104B30004346638002B080BCB846F0BD26001C36F8
:104B40003000FCF737FB0023002D01D03300002696
:104B50006361A661E9E7C04601207047F8B5022409
:104B60000B7807001C4063425C41144B64421C40BC
:104B7000134B08009C4608300D001600644400F0FA
:104B8000F7F8002807D1002E05D0344203D10124C4
:104B90002B781C4201D00020F8BD38006978FFF75F
:104BA000A1F90028F7D02B781C42F4D10023002271
:104BB00038006978FFF7BEF9EEE7C04640FEFFFF18
:104BC000FF010000F8B50D000835060028000C00B4
:104BD00000F0CEF8002803D0012723781F4201D02F
:104BE0000020F8BD30006178FFF77CF90028F7D08D
:104BF00028006288616800F03DF92378051E0BD01B
:104C00001F42EDD10300626830006178FFF792F92E
:104C10000028E5D02800E4E71F42E1D130006178A8
:104C2000FFF774F9DCE7C046F8B5CE46474680B5D5
:104C30008A8905000C000B78002A07D101261E4244
:104C40003FD00020C0BCB946B046F8BD9B0734D564
:104C5000FE2380261B029946B6002700083738003D
:104C600000F0A4F88642ECD80122237890461A423C
:104C7000E7D128006178FFF735F90028E1D0380046
:104C800000F094F8864231D8414623786288194270
:104C9000D7D14B461840061C904200D9161CB6B21C
:104CA00000226178002E00D0626833002800FFF7F0
:104CB00041F90028C5D03000C4E7114B4026994681
:104CC000CBE74978FFF70EF90028BAD0227863883D
:104CD0001642B6D100226178002B00D0626828000D
:104CE000FFF728F90028ACD06088ABE7424623786C
:104CF0001A42A6D128006178FFF708F9A1E7C0465B
:104D0000C0FF0000F0B5C64600B5040006A805784F
:104D10008020884617001E000002824226D8E068E4
:104D2000002803D00121494200F03AFB2069002805
:104D300003D00121494200F033FB43462360730452
:104D40005B0CED031D430023E0686381A780E580D1
:104D50002381002801D000F003FB2069002801D046
:104D600000F0FEFA012080BCB846F0BD0020FAE752
:104D700010B5048941898288A3B288B28C4207D3D6
:104D80001B1A9BB2101C9A4200D9181C80B210BD8D
:104D90005100091A5B189BB2F4E7C04603894089A9
:104DA000181A43425841C0B27047C04610B5048932
:104DB00041898288A3B288B28C4207D31B1A9BB266
:104DC00000209A4201D9D21A90B210BD5100091A9E
:104DD0005B189BB2F4E7C04670B5040000690E0092
:104DE000002803D00121494200F0DAFA25896089C0
:104DF000A288A9B283B285422CD3CD1AADB2002DC0
:104E00002ED0AA4208D2914230D3891A8BB2638144
:104E10009A4203D89B1A9BB29A42FBD9E288216836
:104E20005204520C53433000C918FDF75FFC6389EC
:104E30000125591C89B2A2888B4213D90021520046
:104E4000891A89B220696181002801D000F088FAAE
:104E5000280070BD5500ED1A4D19ADB2002DD0D10E
:104E6000618989B252009142ECDBE9E789188BB283
:104E70006381CDE7F0B546464F46D646C0B506003D
:104E8000006989469046002803D00121494200F07C
:104E900087FA31897289B5888BB294B2914254D322
:104EA0001F1BBFB2002F4AD0BD4205D2AB4251D228
:104EB0005B199CB22F0074814346B8453DD89FB220
:104EC000A54203D8641BA4B2A542FBD9F28831687D
:104ED0005204520C904662432B1B9BB289184246E7
:104EE0009F4225D953439BB21A0048469A46FDF784
:104EF000FDFB434648467D1B64195C4331685044C2
:104F0000A2B2FDF7F3FB7189B588CB199BB26A0099
:104F1000994216D99B1A9BB230697381002801D03F
:104F200000F01EFA3800E0BCBA46B146A846F0BD13
:104F300048467A43FDF7DAFBE5E73B1CBFE7738998
:104F40009BB26A009342E7DBE4E76F003F1BDF1987
:104F5000BFB2A7E75B1B9CB2ACE7C046F8B5040044
:104F6000C0680E00002803D00121494200F018FA61
:104F7000258920896189A288ADB283B28FB2884227
:104F800029D3DB1B9BB29A4209D8E779FF0906D1E6
:104F9000E068002801D000F0E3F93800F8BD954240
:104FA0001ED32B009B1A9BB29342FBD2E28820684F
:104FB0005204520C53433100C018FDF797FB6B1C91
:104FC0009BB2A2889D4218D9002352009B1A9BB223
:104FD00001272381DCE75100C91B5B189BB2D2E794
:104FE0002B00E28820685204520C53433100C01851
:104FF000FDF77CFB0135A288ABB252009342E7DBA0
:10500000E4E7C046F0B557464546DE464E46E0B5B5
:10501000140005000F0083B0002A75D0C068002876
:1050200003D00121494200F0BBF92E89E9796A8950
:10503000AB88B6B292B2C90945D1964200D36DE0B1
:1050400059008A1AB21892B2002189469A4234D283
:105050009A1A111C92B2A24200D9211C8AB291461E
:10506000EA885204520C90464A46B21892B29246CE
:105070004A46D21A92B2934634009E4203D3E41AAF
:10508000A4B29C42FBD24246624328681B1B9BB2DF
:10509000801842464B4554D34B4639005A43FDF7DE
:1050A00025FBAB885B00564501D89A4503DB524689
:1050B000D31A9BB29A4653462B81E868002825D024
:1050C00000F04EF922E0E9884904490C88469C42E8
:1050D00027D2964247D3B11A89B28C465800E11ABA
:1050E00089B28B4661460919814208DBD11889B221
:1050F0000E1BB6B28A46B2423BD9361AB6B2A219D4
:1051000092B29246A146B7E700239946484603B0BB
:10511000F0BCBB46B246A946A046F0BDB21A92B258
:1051200092E700218946002BC7D04146E41A4C4340
:105130001600D118002289B28A46994693463F1933
:105140009AE753439BB21A0039005C440193FDF780
:10515000CDFA414622004A43019B286892B2F918D1
:10516000FDF7C4FA9DE75800811A711889B28C4680
:10517000B5E7A146B04200DD7EE7BEE710B504000A
:10518000C068002803D00121494200F009F92069D4
:10519000002803D00121494200F002F90023E06811
:1051A00063812381002801D000F0DAF8206900280B
:1051B00001D000F0D5F8012010BDC04670B5040044
:1051C000C0680D00002803D00121494200F0E8F832
:1051D0002069002803D00121494200F0E1F87F2135
:1051E000E379ED011940E0682943E171002801D01D
:1051F00000F0B6F82069002801D000F0B1F80120D5
:1052000070BDC04610B5010000230022002000F050
:1052100043F810BD10B583070AD00300032102E054
:1052200001330B4205D01A78002AF9D1181A10BDA3
:10523000030019680C4A0D4C8A188A4322420FD188
:105240005968094A04338A188A43224208D15968A6
:10525000054A04338A188A432242F1D000E0013320
:105260001A78002AFBD1E1E7FFFEFEFE80808080F5
:1052700070B5074C074D641BA41005D0013CA3007A
:10528000EB589847002CF9D100F04EF870BDC0469D
:105290002854001028540010F0B5C6461A4C00B52A
:1052A0002568002D2AD06C681F2C2ADC002808D124
:1052B0000020631C0234A4006B60615180BCB846BE
:1052C000F0BD8827A600AE19F2510137FF37BC4662
:1052D0000122AC446746A2403F68904617436246AD
:1052E000176084277F00F3510228E1D1280042464D
:1052F0008D30FF30036813430360D9E7034D256009
:10530000D1E701204042D9E7DC1400204C130020F3
:10531000034B10B5002B02D00248FFF773FF10BDFE
:105320000000000071520010F8B5C04600000000F7
:1053300001B40248844601BC604700BFD903002085
:1053400001B40248844601BC604700BFFD0B002049
:1053500001B40248844601BC604700BF0903002035
:1053600001B40248844601BC604700BF2D02002002
:1053700001B40248844601BC604700BF1D0F0020F5
:1053800001B40248844601BC604700BFD50B002031
:1053900001B40248844601BC604700BFC100002040
:1053A00001B40248844601BC604700BF9D01002053
:1053B00001B40248844601BC604700BF01010020DF
:1053C00001B40248844601BC604700BF8D0C002038
:1053D00001B40248844601BC604700BF3D0C002078
:1053E000092000103520001019220010D1260010CD
:1053F00081220010252500104121001051200010AD
:105400007120001085200010651100108D20001003
:105410002D150010D11F0010990D00101153001010
:08542000D92F0010FD0200105D
:105428000A2A2A2A2050414E4943202A2A2A0A00B9
:105438000A0000004E6F207370696E6C6F636B73A7
:105448002061726520617661696C61626C6500003B
:105458004E6F2075736572204952517320617265D1
:1054680020617661696C61626C65000048617264F4
:105478007761726520616C61726D20256420616CB2
:10548800726561647920636C61696D656400000010
:105498004861726420617373657274006D69737317
:1054A800696E6720646F75626C652066756E6374DB
:1054B800696F6E0052656C6561736500626F6F7429
:1054C800325F77323571303830000000322E322E9C
:1054D800300000007069636F5F77000070726F6A58
:1054E80065637431000000004D6179203237203245
:1054F8003032360055534220737464696E202F2071
:105508007374646F757400005261737062657272AF
:1055180079205069000000005069636F00000000A6
:10552800426F617264204344430000005265736512
:1055380074000000556E68616E646C6564204952A1
:105548005120307825780A0065702025303258209F
:1055580077617320616C7265616479206176616935
:105568006C61626C6500000043616E277420636F94
:105578006E74696E75652078666572206F6E206935
:105588006E61637469766520657020253032580035
:1055980006005250D3F07542BC5400100600525019
:1055A800E182887FC454001006005250ABB36053A8
:1055B800D454001006005250BBFF3CB6DC54001017
:1055C80006005250861C0302E45400100600525094
:1055D8005422A29DF054001005005250DE65F46874
:1055E800506800100D0A000000000000212A001079
:1055F80000000000252A0010312A00105D2A001042
:10560800592A0010000000000A00000000000306EC
:10561800A6000800020002009C001400030057497D
:105628004E555342000000000000000000008000BA
:10563800040001002800440065007600690063004A
:10564800650049006E007400650072006600610024
:1056580063006500470055004900440000004E0003
:105668007B006200630037003300390038006300B4
:1056780031002D0037003300630064002D00340032
:105688006300620037002D003900380062003800DE
:105698002D003900310033006100380066006300D6
:1056A800610037006200660036007D0000000000DF
:1056B800050F2100011C100500DF60DDD88945C7F2
:1056C8004C9CD2659D9E648A9F00000306A600013B
:1056D800000000000600525053B4F4A1FC5400101E
:1056E8000000000010550010205500102421002053
:1056F8002855001034550010090254000301008099
:105708007D080B00020202000009040000010202E9
:1057180000040524002001052401000104240206D8
:10572800052406000107058103080010090401008B
:10573800020A000000070502024000000705820275
:105748004000000904020000FF00010512011002D8
:10575800EF0201408A2E0A00000101020301000045
:1057680040360010A8370010F837001080370010B6
:105778009237001070370010E03600108C36001099
:1057880080360010623B0010483B001018390010AA
:10579800823B001018390010303B00101C3B0010F1
:1057A80018390010083B00100E3A00101839001084
:1057B800EE3D0010E03D0010D43D001018390010F7
:1057C80018390010BE3D0010E03D001018390010D7
:1057D800183900101839001018390010183900103D
:1057E8001839001018390010743D00105E0D0020A3
:1057F8005E0D0020A80D0020C80D00200C0E002012
:105808001E0E0020540D00200000000089430010E7
:10581800F94300102D440010794400102145001070
:1058280009460010000000000000000009470010B1
:105838006547001081470010A9470010C12A0010D1
:08584800D1480010000000002F
:1058500098550010A4550010B0550010BC5500100C
:10586000C8550010D4550010E0550010DC5600104B
:1058700003000068EFF3108C72B60268002AFCD0B7
:10588000BFF35F8F04229A56002A04DB002900D060
:105890000A60002004E0D0220120120612681A716A
:1058A0001B68BFF35F8F00221A608CF3108870476B
:1058B000F0B5C646150000B504001E000268EFF3FF
:1058C000108172B61368002BFCD0BFF35F8F0423E6
:1058D000E356002B2DDB2268BFF35F8F00201060A2
:1058E00081F31088D0221206127852B290469A4262
:1058F00003D1002080BCB846F0BD00270BE0236830
:10590000BFF35F8F1F6081F310882800310000F023
:10591000FFFE0028EDD12268EFF3108172B6136804
:10592000002BFCD0BFF35F8F23797F2BE7D9434651
:1059300002E0D0231B061B6823712368BFF35F8F2F
:1059400000221A6081F310880120D3E7F0B5C64623
:1059500000B50D00040000F0E3FEFA2206000F007F
:10596000002328000021920000F0E2FE8023361878
:105970004F411B069F4202D30126174F7642D02388
:105980001B061B68002598460BE02368BFF35F8F5A
:105990001D6081F310883000390000F0B9FE002846
:1059A00018D12268EFF3108172B61368002BFCD077
:1059B000BFF35F8F23797F2BE7D943462371236899
:1059C000BFF35F8F00221A6081F31088012080BC32
:1059D000B846F0BD0020FAE7FFFFFF7F0268EFF353
:1059E000108172B61368002BFCD0BFF35F8FFF23CA
:1059F00003710368BFF35F8F00221A6081F3108880
:105A000040BF704710B5084C2378002B0AD1802383
:105A1000064807495B051A68C25004338B42FAD125
:105A20000123237010BDC04639210020781A0010D0
:105A30000001001010B5014B984710BD791A0020E5
:105A4000064B5A6802609A684260DA6882601A6996
:105A5000C2605A6902619B6943617047000002405D
:105A60000268064B5A6042689A608268DA60C268CF
:105A70001A6102695A6142699A61704700000240E6
:105A8000034B1A68C0239B009343024A136070477C
:105A90000C8001400C900140054B1A6880239B004C
:105AA0005340C02292001340024A13607047C04620
:105AB0000C8001400C9001401423F0B5D6464F46AF
:105AC00046469A46C0B581461888043386B0984643
